{
  "contractName": "ControlAcceso",
  "abi": [
    {
      "constant": true,
      "inputs": [],
      "name": "userCount",
      "outputs": [
        {
          "name": "",
          "type": "uint256"
        }
      ],
      "payable": false,
      "stateMutability": "view",
      "type": "function",
      "signature": "0x07973ccf"
    },
    {
      "constant": true,
      "inputs": [],
      "name": "resourceCount",
      "outputs": [
        {
          "name": "",
          "type": "uint256"
        }
      ],
      "payable": false,
      "stateMutability": "view",
      "type": "function",
      "signature": "0x0a3fa24a"
    },
    {
      "constant": true,
      "inputs": [],
      "name": "actualResourceId",
      "outputs": [
        {
          "name": "",
          "type": "uint256"
        }
      ],
      "payable": false,
      "stateMutability": "view",
      "type": "function",
      "signature": "0x1b8d826b"
    },
    {
      "constant": true,
      "inputs": [
        {
          "name": "",
          "type": "uint256"
        }
      ],
      "name": "usersArray",
      "outputs": [
        {
          "name": "",
          "type": "address"
        }
      ],
      "payable": false,
      "stateMutability": "view",
      "type": "function",
      "signature": "0x2fae35c0"
    },
    {
      "constant": true,
      "inputs": [],
      "name": "owner",
      "outputs": [
        {
          "name": "",
          "type": "address"
        }
      ],
      "payable": false,
      "stateMutability": "view",
      "type": "function",
      "signature": "0x8da5cb5b"
    },
    {
      "constant": true,
      "inputs": [
        {
          "name": "",
          "type": "uint256"
        }
      ],
      "name": "idToResource",
      "outputs": [
        {
          "name": "id",
          "type": "uint256"
        },
        {
          "name": "name",
          "type": "string"
        },
        {
          "name": "description",
          "type": "string"
        },
        {
          "name": "creationDate",
          "type": "uint256"
        },
        {
          "name": "creator",
          "type": "address"
        }
      ],
      "payable": false,
      "stateMutability": "view",
      "type": "function",
      "signature": "0x900b6cab"
    },
    {
      "constant": true,
      "inputs": [
        {
          "name": "",
          "type": "address"
        },
        {
          "name": "",
          "type": "uint256"
        }
      ],
      "name": "addressToRequests",
      "outputs": [
        {
          "name": "user",
          "type": "address"
        },
        {
          "name": "resource",
          "type": "uint256"
        },
        {
          "name": "state",
          "type": "uint256"
        }
      ],
      "payable": false,
      "stateMutability": "view",
      "type": "function",
      "signature": "0xa1ea016d"
    },
    {
      "constant": true,
      "inputs": [
        {
          "name": "",
          "type": "uint256"
        }
      ],
      "name": "resourcesArray",
      "outputs": [
        {
          "name": "",
          "type": "uint256"
        }
      ],
      "payable": false,
      "stateMutability": "view",
      "type": "function",
      "signature": "0xa8d1b244"
    },
    {
      "constant": true,
      "inputs": [
        {
          "name": "",
          "type": "address"
        }
      ],
      "name": "addressToUser",
      "outputs": [
        {
          "name": "userAddress",
          "type": "address"
        },
        {
          "name": "username",
          "type": "string"
        },
        {
          "name": "id",
          "type": "uint256"
        },
        {
          "name": "admin",
          "type": "bool"
        },
        {
          "name": "resourcesCount",
          "type": "uint256"
        },
        {
          "name": "requestsCount",
          "type": "uint256"
        }
      ],
      "payable": false,
      "stateMutability": "view",
      "type": "function",
      "signature": "0xedf53886"
    },
    {
      "constant": true,
      "inputs": [
        {
          "name": "",
          "type": "address"
        },
        {
          "name": "",
          "type": "uint256"
        }
      ],
      "name": "addressToResourcesId",
      "outputs": [
        {
          "name": "",
          "type": "uint256"
        }
      ],
      "payable": false,
      "stateMutability": "view",
      "type": "function",
      "signature": "0xf7ed9555"
    },
    {
      "inputs": [],
      "payable": false,
      "stateMutability": "nonpayable",
      "type": "constructor",
      "signature": "constructor"
    },
    {
      "anonymous": false,
      "inputs": [
        {
          "indexed": false,
          "name": "userAddress",
          "type": "address"
        },
        {
          "indexed": false,
          "name": "username",
          "type": "string"
        },
        {
          "indexed": false,
          "name": "id",
          "type": "uint256"
        },
        {
          "indexed": false,
          "name": "admin",
          "type": "bool"
        }
      ],
      "name": "CreateUser",
      "type": "event",
      "signature": "0x0b6981b3c7224dfb942f6b68c4b81905a7b22334f5f6cfeb5e52cc9c0ddc36b1"
    },
    {
      "anonymous": false,
      "inputs": [
        {
          "indexed": false,
          "name": "userAddress",
          "type": "address"
        }
      ],
      "name": "RemoveUser",
      "type": "event",
      "signature": "0x0ad8e54ac59bf2d8a7a1474c1af503b593553cf4fcaaffdef04ab5249f89762b"
    },
    {
      "anonymous": false,
      "inputs": [
        {
          "indexed": false,
          "name": "id",
          "type": "uint256"
        },
        {
          "indexed": false,
          "name": "name",
          "type": "string"
        },
        {
          "indexed": false,
          "name": "description",
          "type": "string"
        },
        {
          "indexed": false,
          "name": "creator",
          "type": "address"
        }
      ],
      "name": "CreateResource",
      "type": "event",
      "signature": "0x03a31eda3264898c9097bb2d2f45e34d3ff307b9e040196195632ba7a7bf4e38"
    },
    {
      "anonymous": false,
      "inputs": [
        {
          "indexed": false,
          "name": "id",
          "type": "uint256"
        }
      ],
      "name": "RemoveResource",
      "type": "event",
      "signature": "0xdd673f98c4d2d29b73520888ecb759f89c4544d4a9e1cc2393d546ebe32fd63c"
    },
    {
      "anonymous": false,
      "inputs": [
        {
          "indexed": false,
          "name": "user",
          "type": "address"
        },
        {
          "indexed": false,
          "name": "resource",
          "type": "uint256"
        }
      ],
      "name": "RequestResource",
      "type": "event",
      "signature": "0x66e8c0df3145c948ad0c06436f991a8ef60cc98447f65e3a9b67e07e0a498ca5"
    },
    {
      "anonymous": false,
      "inputs": [
        {
          "indexed": false,
          "name": "user",
          "type": "address"
        },
        {
          "indexed": false,
          "name": "resource",
          "type": "uint256"
        },
        {
          "indexed": false,
          "name": "allowed",
          "type": "bool"
        }
      ],
      "name": "AcceptRequest",
      "type": "event",
      "signature": "0xa049d0e3b89efa3e2345b773ef902d12ce74388cda692b45484783199da64348"
    },
    {
      "constant": false,
      "inputs": [
        {
          "name": "_userAddress",
          "type": "address"
        },
        {
          "name": "_username",
          "type": "string"
        },
        {
          "name": "_admin",
          "type": "bool"
        }
      ],
      "name": "addUser",
      "outputs": [],
      "payable": false,
      "stateMutability": "nonpayable",
      "type": "function",
      "signature": "0x06dde62d"
    },
    {
      "constant": true,
      "inputs": [
        {
          "name": "index",
          "type": "uint256"
        }
      ],
      "name": "getUser",
      "outputs": [
        {
          "name": "",
          "type": "string"
        }
      ],
      "payable": false,
      "stateMutability": "view",
      "type": "function",
      "signature": "0xb0467deb"
    },
    {
      "constant": true,
      "inputs": [
        {
          "name": "_username",
          "type": "string"
        }
      ],
      "name": "checkUsername",
      "outputs": [
        {
          "name": "",
          "type": "bool"
        }
      ],
      "payable": false,
      "stateMutability": "view",
      "type": "function",
      "signature": "0xa5d87c40"
    },
    {
      "constant": false,
      "inputs": [
        {
          "name": "_userAddress",
          "type": "address"
        }
      ],
      "name": "removeUser",
      "outputs": [],
      "payable": false,
      "stateMutability": "nonpayable",
      "type": "function",
      "signature": "0x98575188"
    },
    {
      "constant": false,
      "inputs": [
        {
          "name": "_name",
          "type": "string"
        },
        {
          "name": "_description",
          "type": "string"
        }
      ],
      "name": "addResource",
      "outputs": [],
      "payable": false,
      "stateMutability": "nonpayable",
      "type": "function",
      "signature": "0x8d225030"
    },
    {
      "constant": false,
      "inputs": [
        {
          "name": "_id",
          "type": "uint256"
        }
      ],
      "name": "removeResource",
      "outputs": [],
      "payable": false,
      "stateMutability": "nonpayable",
      "type": "function",
      "signature": "0x01b98339"
    },
    {
      "constant": true,
      "inputs": [
        {
          "name": "index",
          "type": "uint256"
        }
      ],
      "name": "getResource",
      "outputs": [
        {
          "name": "",
          "type": "string"
        }
      ],
      "payable": false,
      "stateMutability": "view",
      "type": "function",
      "signature": "0x1e8fca2d"
    },
    {
      "constant": false,
      "inputs": [
        {
          "name": "_id",
          "type": "uint256"
        }
      ],
      "name": "requestResource",
      "outputs": [],
      "payable": false,
      "stateMutability": "nonpayable",
      "type": "function",
      "signature": "0x11d08676"
    },
    {
      "constant": true,
      "inputs": [
        {
          "name": "_id",
          "type": "uint256"
        }
      ],
      "name": "isRequested",
      "outputs": [
        {
          "name": "",
          "type": "address"
        }
      ],
      "payable": false,
      "stateMutability": "view",
      "type": "function",
      "signature": "0x155fec72"
    },
    {
      "constant": false,
      "inputs": [
        {
          "name": "_user",
          "type": "address"
        },
        {
          "name": "_id",
          "type": "uint256"
        },
        {
          "name": "_accept",
          "type": "bool"
        }
      ],
      "name": "acceptRequest",
      "outputs": [],
      "payable": false,
      "stateMutability": "nonpayable",
      "type": "function",
      "signature": "0x6e1346ed"
    },
    {
      "constant": true,
      "inputs": [],
      "name": "getCountRequest",
      "outputs": [
        {
          "name": "",
          "type": "uint256"
        }
      ],
      "payable": false,
      "stateMutability": "view",
      "type": "function",
      "signature": "0xc510d96d"
    },
    {
      "constant": true,
      "inputs": [
        {
          "name": "_id",
          "type": "uint256"
        }
      ],
      "name": "getRequest",
      "outputs": [
        {
          "name": "",
          "type": "string"
        },
        {
          "name": "",
          "type": "uint256"
        },
        {
          "name": "",
          "type": "address"
        }
      ],
      "payable": false,
      "stateMutability": "view",
      "type": "function",
      "signature": "0xc58343ef"
    },
    {
      "constant": true,
      "inputs": [],
      "name": "allowedCount",
      "outputs": [
        {
          "name": "",
          "type": "uint256"
        }
      ],
      "payable": false,
      "stateMutability": "view",
      "type": "function",
      "signature": "0x89d34e4b"
    },
    {
      "constant": true,
      "inputs": [
        {
          "name": "_id",
          "type": "uint256"
        }
      ],
      "name": "haveAccess",
      "outputs": [
        {
          "name": "",
          "type": "bool"
        }
      ],
      "payable": false,
      "stateMutability": "view",
      "type": "function",
      "signature": "0x2212b16e"
    },
    {
      "constant": true,
      "inputs": [
        {
          "name": "_id",
          "type": "uint256"
        }
      ],
      "name": "getRequestState",
      "outputs": [
        {
          "name": "",
          "type": "uint256"
        }
      ],
      "payable": false,
      "stateMutability": "view",
      "type": "function",
      "signature": "0xed979dd6"
    }
  ],
  "bytecode": "0x60806040526000600160006101000a81548173ffffffffffffffffffffffffffffffffffffffff021916908373ffffffffffffffffffffffffffffffffffffffff1602179055503480156200005357600080fd5b50336000806101000a81548173ffffffffffffffffffffffffffffffffffffffff021916908373ffffffffffffffffffffffffffffffffffffffff160217905550600060038190555060006004819055506001600281905550620000b6620003f8565b60e0604051908101604052806000809054906101000a900473ffffffffffffffffffffffffffffffffffffffff1673ffffffffffffffffffffffffffffffffffffffff1681526020016040805190810160405280600581526020017f61646d696e00000000000000000000000000000000000000000000000000000081525081526020016002548152602001600115158152602001600081526020016000815260200160006040519080825280602002602001820160405280156200018a5781602001602082028038833980820191505090505b50815250905080600560008060009054906101000a900473ffffffffffffffffffffffffffffffffffffffff1673ffffffffffffffffffffffffffffffffffffffff1673ffffffffffffffffffffffffffffffffffffffff16815260200190815260200160002060008201518160000160006101000a81548173ffffffffffffffffffffffffffffffffffffffff021916908373ffffffffffffffffffffffffffffffffffffffff1602179055506020820151816001019080519060200190620002569291906200044e565b506040820151816002015560608201518160030160006101000a81548160ff0219169083151502179055506080820151816004015560a0820151816005015560c0820151816006019080519060200190620002b3929190620004d5565b5090505060063390806001815401808255809150509060018203906000526020600020016000909192909190916101000a81548173ffffffffffffffffffffffffffffffffffffffff021916908373ffffffffffffffffffffffffffffffffffffffff160217905550507f0b6981b3c7224dfb942f6b68c4b81905a7b22334f5f6cfeb5e52cc9c0ddc36b16000809054906101000a900473ffffffffffffffffffffffffffffffffffffffff166002546001604051808473ffffffffffffffffffffffffffffffffffffffff1673ffffffffffffffffffffffffffffffffffffffff1681526020018060200184815260200183151515158152602001828103825260058152602001807f61646d696e00000000000000000000000000000000000000000000000000000081525060200194505050505060405180910390a1506200054f565b60e060405190810160405280600073ffffffffffffffffffffffffffffffffffffffff16815260200160608152602001600081526020016000151581526020016000815260200160008152602001606081525090565b828054600181600116156101000203166002900490600052602060002090601f016020900481019282601f106200049157805160ff1916838001178555620004c2565b82800160010185558215620004c2579182015b82811115620004c1578251825591602001919060010190620004a4565b5b509050620004d1919062000527565b5090565b82805482825590600052602060002090810192821562000514579160200282015b8281111562000513578251825591602001919060010190620004f6565b5b50905062000523919062000527565b5090565b6200054c91905b80821115620005485760008160009055506001016200052e565b5090565b90565b613955806200055f6000396000f3fe608060405260043610610149576000357c0100000000000000000000000000000000000000000000000000000000900463ffffffff16806301b983391461014e57806306dde62d1461018957806307973ccf1461027d5780630a3fa24a146102a857806311d08676146102d3578063155fec721461030e5780631b8d826b146103895780631e8fca2d146103b45780632212b16e146104685780632fae35c0146104bb5780636e1346ed1461053657806389d34e4b1461059d5780638d225030146105c85780638da5cb5b14610727578063900b6cab1461077e57806398575188146108df578063a1ea016d14610930578063a5d87c40146109d9578063a8d1b24414610ab9578063b0467deb14610b08578063c510d96d14610bbc578063c58343ef14610be7578063ed979dd614610cd5578063edf5388614610d24578063f7ed955514610e41575b600080fd5b34801561015a57600080fd5b506101876004803603602081101561017157600080fd5b8101908080359060200190929190505050610eb0565b005b34801561019557600080fd5b5061027b600480360360608110156101ac57600080fd5b81019080803573ffffffffffffffffffffffffffffffffffffffff169060200190929190803590602001906401000000008111156101e957600080fd5b8201836020820111156101fb57600080fd5b8035906020019184600183028401116401000000008311171561021d57600080fd5b91908080601f016020809104026020016040519081016040528093929190818152602001838380828437600081840152601f19601f8201169050808301925050505050505091929192908035151590602001909291905050506110d6565b005b34801561028957600080fd5b50610292611534565b6040518082815260200191505060405180910390f35b3480156102b457600080fd5b506102bd61153a565b6040518082815260200191505060405180910390f35b3480156102df57600080fd5b5061030c600480360360208110156102f657600080fd5b8101908080359060200190929190505050611540565b005b34801561031a57600080fd5b506103476004803603602081101561033157600080fd5b81019080803590602001909291905050506119b3565b604051808273ffffffffffffffffffffffffffffffffffffffff1673ffffffffffffffffffffffffffffffffffffffff16815260200191505060405180910390f35b34801561039557600080fd5b5061039e611c35565b6040518082815260200191505060405180910390f35b3480156103c057600080fd5b506103ed600480360360208110156103d757600080fd5b8101908080359060200190929190505050611c3b565b6040518080602001828103825283818151815260200191508051906020019080838360005b8381101561042d578082015181840152602081019050610412565b50505050905090810190601f16801561045a5780820380516001836020036101000a031916815260200191505b509250505060405180910390f35b34801561047457600080fd5b506104a16004803603602081101561048b57600080fd5b8101908080359060200190929190505050611d85565b604051808215151515815260200191505060405180910390f35b3480156104c757600080fd5b506104f4600480360360208110156104de57600080fd5b8101908080359060200190929190505050612046565b604051808273ffffffffffffffffffffffffffffffffffffffff1673ffffffffffffffffffffffffffffffffffffffff16815260200191505060405180910390f35b34801561054257600080fd5b5061059b6004803603606081101561055957600080fd5b81019080803573ffffffffffffffffffffffffffffffffffffffff16906020019092919080359060200190929190803515159060200190929190505050612084565b005b3480156105a957600080fd5b506105b26123cd565b6040518082815260200191505060405180910390f35b3480156105d457600080fd5b50610725600480360360408110156105eb57600080fd5b810190808035906020019064010000000081111561060857600080fd5b82018360208201111561061a57600080fd5b8035906020019184600183028401116401000000008311171561063c57600080fd5b91908080601f016020809104026020016040519081016040528093929190818152602001838380828437600081840152601f19601f8201169050808301925050505050505091929192908035906020019064010000000081111561069f57600080fd5b8201836020820111156106b157600080fd5b803590602001918460018302840111640100000000831117156106d357600080fd5b91908080601f016020809104026020016040519081016040528093929190818152602001838380828437600081840152601f19601f82011690508083019250505050505050919291929050505061241a565b005b34801561073357600080fd5b5061073c61276d565b604051808273ffffffffffffffffffffffffffffffffffffffff1673ffffffffffffffffffffffffffffffffffffffff16815260200191505060405180910390f35b34801561078a57600080fd5b506107b7600480360360208110156107a157600080fd5b8101908080359060200190929190505050612792565b6040518086815260200180602001806020018581526020018473ffffffffffffffffffffffffffffffffffffffff1673ffffffffffffffffffffffffffffffffffffffff168152602001838103835287818151815260200191508051906020019080838360005b8381101561083957808201518184015260208101905061081e565b50505050905090810190601f1680156108665780820380516001836020036101000a031916815260200191505b50838103825286818151815260200191508051906020019080838360005b8381101561089f578082015181840152602081019050610884565b50505050905090810190601f1680156108cc5780820380516001836020036101000a031916815260200191505b5097505050505050505060405180910390f35b3480156108eb57600080fd5b5061092e6004803603602081101561090257600080fd5b81019080803573ffffffffffffffffffffffffffffffffffffffff169060200190929190505050612918565b005b34801561093c57600080fd5b506109896004803603604081101561095357600080fd5b81019080803573ffffffffffffffffffffffffffffffffffffffff16906020019092919080359060200190929190505050612c44565b604051808473ffffffffffffffffffffffffffffffffffffffff1673ffffffffffffffffffffffffffffffffffffffff168152602001838152602001828152602001935050505060405180910390f35b3480156109e557600080fd5b50610a9f600480360360208110156109fc57600080fd5b8101908080359060200190640100000000811115610a1957600080fd5b820183602082011115610a2b57600080fd5b80359060200191846001830284011164010000000083111715610a4d57600080fd5b91908080601f016020809104026020016040519081016040528093929190818152602001838380828437600081840152601f19601f820116905080830192505050505050509192919290505050612caa565b604051808215151515815260200191505060405180910390f35b348015610ac557600080fd5b50610af260048036036020811015610adc57600080fd5b8101908080359060200190929190505050612e10565b6040518082815260200191505060405180910390f35b348015610b1457600080fd5b50610b4160048036036020811015610b2b57600080fd5b8101908080359060200190929190505050612e33565b6040518080602001828103825283818151815260200191508051906020019080838360005b83811015610b81578082015181840152602081019050610b66565b50505050905090810190601f168015610bae5780820380516001836020036101000a031916815260200191505b509250505060405180910390f35b348015610bc857600080fd5b50610bd1612f6d565b6040518082815260200191505060405180910390f35b348015610bf357600080fd5b50610c2060048036036020811015610c0a57600080fd5b8101908080359060200190929190505050612fb7565b60405180806020018481526020018373ffffffffffffffffffffffffffffffffffffffff1673ffffffffffffffffffffffffffffffffffffffff168152602001828103825285818151815260200191508051906020019080838360005b83811015610c98578082015181840152602081019050610c7d565b50505050905090810190601f168015610cc55780820380516001836020036101000a031916815260200191505b5094505050505060405180910390f35b348015610ce157600080fd5b50610d0e60048036036020811015610cf857600080fd5b8101908080359060200190929190505050613190565b6040518082815260200191505060405180910390f35b348015610d3057600080fd5b50610d7360048036036020811015610d4757600080fd5b81019080803573ffffffffffffffffffffffffffffffffffffffff1690602001909291905050506133b5565b604051808773ffffffffffffffffffffffffffffffffffffffff1673ffffffffffffffffffffffffffffffffffffffff1681526020018060200186815260200185151515158152602001848152602001838152602001828103825287818151815260200191508051906020019080838360005b83811015610e01578082015181840152602081019050610de6565b50505050905090810190601f168015610e2e5780820380516001836020036101000a031916815260200191505b5097505050505050505060405180910390f35b348015610e4d57600080fd5b50610e9a60048036036040811015610e6457600080fd5b81019080803573ffffffffffffffffffffffffffffffffffffffff169060200190929190803590602001909291905050506134b6565b6040518082815260200191505060405180910390f35b60008114158015610ec357506004548111155b1515610ece57600080fd5b600080610eda836134e6565b8092508193505050811561101a576000600a600160035403815481101515610efe57fe5b9060005260206000200154905080600a83815481101515610f1b57fe5b9060005260206000200181905550600a600160035403815481101515610f3d57fe5b9060005260206000200160009055610f553385613545565b8093508194505050600115158315151415610fc557600860003373ffffffffffffffffffffffffffffffffffffffff1673ffffffffffffffffffffffffffffffffffffffff16815260200190815260200160002082815481101515610fb657fe5b90600052602060002001600090555b600560003373ffffffffffffffffffffffffffffffffffffffff1673ffffffffffffffffffffffffffffffffffffffff1681526020019081526020016000206004016000815480929190600190039190505550505b6007600084815260200190815260200160002060008082016000905560018201600061104691906136fa565b60028201600061105691906136fa565b60038201600090556004820160006101000a81549073ffffffffffffffffffffffffffffffffffffffff021916905550507fdd673f98c4d2d29b73520888ecb759f89c4544d4a9e1cc2393d546ebe32fd63c836040518082815260200191505060405180910390a160036000815480929190600190039190505550505050565b60011515600560003373ffffffffffffffffffffffffffffffffffffffff1673ffffffffffffffffffffffffffffffffffffffff16815260200190815260200160002060030160009054906101000a900460ff1615151415156111c7576040517f08c379a00000000000000000000000000000000000000000000000000000000081526004018080602001828103825260228152602001807f4f6e6c792061646d696e732063616e2063616c6c20746869732066756e63746981526020017f6f6e00000000000000000000000000000000000000000000000000000000000081525060400191505060405180910390fd5b6111d082612caa565b1515611244576040517f08c379a000000000000000000000000000000000000000000000000000000000815260040180806020018281038252601b8152602001807f5468697320757365726e616d6520616c7265616479206578697374000000000081525060200191505060405180910390fd5b60026000815480929190600101919050555061125e613742565b60e0604051908101604052808573ffffffffffffffffffffffffffffffffffffffff16815260200184815260200160025481526020018315158152602001600081526020016000815260200160006040519080825280602002602001820160405280156112da5781602001602082028038833980820191505090505b50815250905080600560008673ffffffffffffffffffffffffffffffffffffffff1673ffffffffffffffffffffffffffffffffffffffff16815260200190815260200160002060008201518160000160006101000a81548173ffffffffffffffffffffffffffffffffffffffff021916908373ffffffffffffffffffffffffffffffffffffffff1602179055506020820151816001019080519060200190611383929190613798565b506040820151816002015560608201518160030160006101000a81548160ff0219169083151502179055506080820151816004015560a0820151816005015560c08201518160060190805190602001906113de929190613818565b5090505060068490806001815401808255809150509060018203906000526020600020016000909192909190916101000a81548173ffffffffffffffffffffffffffffffffffffffff021916908373ffffffffffffffffffffffffffffffffffffffff160217905550507f0b6981b3c7224dfb942f6b68c4b81905a7b22334f5f6cfeb5e52cc9c0ddc36b1848460025485604051808573ffffffffffffffffffffffffffffffffffffffff1673ffffffffffffffffffffffffffffffffffffffff1681526020018060200184815260200183151515158152602001828103825285818151815260200191508051906020019080838360005b838110156114f15780820151818401526020810190506114d6565b50505050905090810190601f16801561151e5780820380516001836020036101000a031916815260200191505b509550505050505060405180910390a150505050565b60025481565b60035481565b60008111801561156757506000600760008381526020019081526020016000206000015414155b15156115db576040517f08c379a00000000000000000000000000000000000000000000000000000000081526004018080602001828103825260118152602001807f69642066756572612064652072616e676f00000000000000000000000000000081525060200191505060405180910390fd5b6115e3613742565b600560006007600085815260200190815260200160002060040160009054906101000a900473ffffffffffffffffffffffffffffffffffffffff1673ffffffffffffffffffffffffffffffffffffffff1673ffffffffffffffffffffffffffffffffffffffff16815260200190815260200160002060e060405190810160405290816000820160009054906101000a900473ffffffffffffffffffffffffffffffffffffffff1673ffffffffffffffffffffffffffffffffffffffff1673ffffffffffffffffffffffffffffffffffffffff168152602001600182018054600181600116156101000203166002900480601f0160208091040260200160405190810160405280929190818152602001828054600181600116156101000203166002900480156117535780601f1061172857610100808354040283529160200191611753565b820191906000526020600020905b81548152906001019060200180831161173657829003601f168201915b50505050508152602001600282015481526020016003820160009054906101000a900460ff161515151581526020016004820154815260200160058201548152602001600682018054806020026020016040519081016040528092919081815260200182805480156117e457602002820191906000526020600020905b8154815260200190600101908083116117d0575b505050505081525050905060056000826000015173ffffffffffffffffffffffffffffffffffffffff1673ffffffffffffffffffffffffffffffffffffffff1681526020019081526020016000206005016000815480929190600101919050555060096000826000015173ffffffffffffffffffffffffffffffffffffffff1673ffffffffffffffffffffffffffffffffffffffff1681526020019081526020016000206060604051908101604052803373ffffffffffffffffffffffffffffffffffffffff16815260200184815260200160028152509080600181540180825580915050906001820390600052602060002090600302016000909192909190915060008201518160000160006101000a81548173ffffffffffffffffffffffffffffffffffffffff021916908373ffffffffffffffffffffffffffffffffffffffff16021790555060208201518160010155604082015181600201555050507f66e8c0df3145c948ad0c06436f991a8ef60cc98447f65e3a9b67e07e0a498ca53383604051808373ffffffffffffffffffffffffffffffffffffffff1673ffffffffffffffffffffffffffffffffffffffff1681526020018281526020019250505060405180910390a15050565b60006007600083815260200190815260200160002060040160009054906101000a900473ffffffffffffffffffffffffffffffffffffffff1673ffffffffffffffffffffffffffffffffffffffff163373ffffffffffffffffffffffffffffffffffffffff16141515611a8e576040517f08c379a00000000000000000000000000000000000000000000000000000000081526004018080602001828103825260158152602001807f7573756172696f206e6f206175746f72697a61646f000000000000000000000081525060200191505060405180910390fd5b6000600560003373ffffffffffffffffffffffffffffffffffffffff1673ffffffffffffffffffffffffffffffffffffffff168152602001908152602001600020600501541415611ae25760009050611c30565b60008090505b600560003373ffffffffffffffffffffffffffffffffffffffff1673ffffffffffffffffffffffffffffffffffffffff16815260200190815260200160002060050154811015611c2a5782600960003373ffffffffffffffffffffffffffffffffffffffff1673ffffffffffffffffffffffffffffffffffffffff16815260200190815260200160002082815481101515611b7f57fe5b9060005260206000209060030201600101541415611c1d57600960003373ffffffffffffffffffffffffffffffffffffffff1673ffffffffffffffffffffffffffffffffffffffff16815260200190815260200160002081815481101515611be357fe5b906000526020600020906003020160000160009054906101000a900473ffffffffffffffffffffffffffffffffffffffff16915050611c30565b8080600101915050611ae8565b50600090505b919050565b60045481565b606060008210151515611cb6576040517f08c379a00000000000000000000000000000000000000000000000000000000081526004018080602001828103825260148152602001807f696e6465782066756572612064652072616e676f00000000000000000000000081525060200191505060405180910390fd5b60076000600a84815481101515611cc957fe5b906000526020600020015481526020019081526020016000206001018054600181600116156101000203166002900480601f016020809104026020016040519081016040528092919081815260200182805460018160011615610100020316600290048015611d795780601f10611d4e57610100808354040283529160200191611d79565b820191906000526020600020905b815481529060010190602001808311611d5c57829003601f168201915b50505050509050919050565b6000808214151515611d9657600080fd5b611d9e613742565b600560003373ffffffffffffffffffffffffffffffffffffffff1673ffffffffffffffffffffffffffffffffffffffff16815260200190815260200160002060e060405190810160405290816000820160009054906101000a900473ffffffffffffffffffffffffffffffffffffffff1673ffffffffffffffffffffffffffffffffffffffff1673ffffffffffffffffffffffffffffffffffffffff168152602001600182018054600181600116156101000203166002900480601f016020809104026020016040519081016040528092919081815260200182805460018160011615610100020316600290048015611ed85780601f10611ead57610100808354040283529160200191611ed8565b820191906000526020600020905b815481529060010190602001808311611ebb57829003601f168201915b50505050508152602001600282015481526020016003820160009054906101000a900460ff16151515158152602001600482015481526020016005820154815260200160068201805480602002602001604051908101604052809291908181526020018280548015611f6957602002820191906000526020600020905b815481526020019060010190808311611f55575b50505050508152505090506007600084815260200190815260200160002060040160009054906101000a900473ffffffffffffffffffffffffffffffffffffffff1673ffffffffffffffffffffffffffffffffffffffff16816000015173ffffffffffffffffffffffffffffffffffffffff161415611fec576001915050612041565b60008090505b8160c001515181101561203a57838260c001518281518110151561201257fe5b90602001906020020151141561202d57600192505050612041565b8080600101915050611ff2565b5060009150505b919050565b60068181548110151561205557fe5b906000526020600020016000915054906101000a900473ffffffffffffffffffffffffffffffffffffffff1681565b6000821415151561209457600080fd5b801561217e57600560008473ffffffffffffffffffffffffffffffffffffffff1673ffffffffffffffffffffffffffffffffffffffff1681526020019081526020016000206006018290806001815401808255809150509060018203906000526020600020016000909192909190915055507fa049d0e3b89efa3e2345b773ef902d12ce74388cda692b45484783199da64348838383604051808473ffffffffffffffffffffffffffffffffffffffff1673ffffffffffffffffffffffffffffffffffffffff16815260200183815260200182151515158152602001935050505060405180910390a15b60008090505b600560003373ffffffffffffffffffffffffffffffffffffffff1673ffffffffffffffffffffffffffffffffffffffff168152602001908152602001600020600501548110156123c75782600960003373ffffffffffffffffffffffffffffffffffffffff1673ffffffffffffffffffffffffffffffffffffffff1681526020019081526020016000208281548110151561221b57fe5b9060005260206000209060030201600101541480156122e257508373ffffffffffffffffffffffffffffffffffffffff16600960003373ffffffffffffffffffffffffffffffffffffffff1673ffffffffffffffffffffffffffffffffffffffff1681526020019081526020016000208281548110151561229857fe5b906000526020600020906003020160000160009054906101000a900473ffffffffffffffffffffffffffffffffffffffff1673ffffffffffffffffffffffffffffffffffffffff16145b156123ba578115612355576001600960003373ffffffffffffffffffffffffffffffffffffffff1673ffffffffffffffffffffffffffffffffffffffff1681526020019081526020016000208281548110151561233b57fe5b9060005260206000209060030201600201819055506123b9565b6000600960003373ffffffffffffffffffffffffffffffffffffffff1673ffffffffffffffffffffffffffffffffffffffff168152602001908152602001600020828154811015156123a357fe5b9060005260206000209060030201600201819055505b5b8080600101915050612184565b50505050565b6000600560003373ffffffffffffffffffffffffffffffffffffffff1673ffffffffffffffffffffffffffffffffffffffff16815260200190815260200160002060060180549050905090565b600360008154809291906001019190505550600460008154809291906001019190505550612446613865565b60a06040519081016040528060045481526020018481526020018381526020014281526020013373ffffffffffffffffffffffffffffffffffffffff168152509050806007600060045481526020019081526020016000206000820151816000015560208201518160010190805190602001906124c4929190613798565b5060408201518160020190805190602001906124e1929190613798565b506060820151816003015560808201518160040160006101000a81548173ffffffffffffffffffffffffffffffffffffffff021916908373ffffffffffffffffffffffffffffffffffffffff160217905550905050600560003373ffffffffffffffffffffffffffffffffffffffff1673ffffffffffffffffffffffffffffffffffffffff16815260200190815260200160002060040160008154809291906001019190505550600860003373ffffffffffffffffffffffffffffffffffffffff1673ffffffffffffffffffffffffffffffffffffffff1681526020019081526020016000206004549080600181540180825580915050906001820390600052602060002001600090919290919091505550600a60045490806001815401808255809150509060018203906000526020600020016000909192909190915055507f03a31eda3264898c9097bb2d2f45e34d3ff307b9e040196195632ba7a7bf4e386004548484336040518085815260200180602001806020018473ffffffffffffffffffffffffffffffffffffffff1673ffffffffffffffffffffffffffffffffffffffff168152602001838103835286818151815260200191508051906020019080838360005b838110156126c45780820151818401526020810190506126a9565b50505050905090810190601f1680156126f15780820380516001836020036101000a031916815260200191505b50838103825285818151815260200191508051906020019080838360005b8381101561272a57808201518184015260208101905061270f565b50505050905090810190601f1680156127575780820380516001836020036101000a031916815260200191505b50965050505050505060405180910390a1505050565b6000809054906101000a900473ffffffffffffffffffffffffffffffffffffffff1681565b6007602052806000526040600020600091509050806000015490806001018054600181600116156101000203166002900480601f0160208091040260200160405190810160405280929190818152602001828054600181600116156101000203166002900480156128445780601f1061281957610100808354040283529160200191612844565b820191906000526020600020905b81548152906001019060200180831161282757829003601f168201915b505050505090806002018054600181600116156101000203166002900480601f0160208091040260200160405190810160405280929190818152602001828054600181600116156101000203166002900480156128e25780601f106128b7576101008083540402835291602001916128e2565b820191906000526020600020905b8154815290600101906020018083116128c557829003601f168201915b5050505050908060030154908060040160009054906101000a900473ffffffffffffffffffffffffffffffffffffffff16905085565b600160009054906101000a900473ffffffffffffffffffffffffffffffffffffffff1673ffffffffffffffffffffffffffffffffffffffff16600560008373ffffffffffffffffffffffffffffffffffffffff1673ffffffffffffffffffffffffffffffffffffffff16815260200190815260200160002060000160009054906101000a900473ffffffffffffffffffffffffffffffffffffffff1673ffffffffffffffffffffffffffffffffffffffff16141515612c41576000806129dd83613623565b80925081935050508115612c3e5760006006600160025403815481101515612a0157fe5b9060005260206000200160009054906101000a900473ffffffffffffffffffffffffffffffffffffffff16905060018201600560008373ffffffffffffffffffffffffffffffffffffffff1673ffffffffffffffffffffffffffffffffffffffff1681526020019081526020016000206002018190555080600683815481101515612a8857fe5b9060005260206000200160006101000a81548173ffffffffffffffffffffffffffffffffffffffff021916908373ffffffffffffffffffffffffffffffffffffffff160217905550600560008573ffffffffffffffffffffffffffffffffffffffff1673ffffffffffffffffffffffffffffffffffffffff168152602001908152602001600020600080820160006101000a81549073ffffffffffffffffffffffffffffffffffffffff0219169055600182016000612b4791906136fa565b60028201600090556003820160006101000a81549060ff021916905560048201600090556005820160009055600682016000612b8391906138ab565b50506006600160025403815481101515612b9957fe5b9060005260206000200160006101000a81549073ffffffffffffffffffffffffffffffffffffffff02191690557f0ad8e54ac59bf2d8a7a1474c1af503b593553cf4fcaaffdef04ab5249f89762b84604051808273ffffffffffffffffffffffffffffffffffffffff1673ffffffffffffffffffffffffffffffffffffffff16815260200191505060405180910390a160026000815480929190600190039190505550505b50505b50565b600960205281600052604060002081815481101515612c5f57fe5b9060005260206000209060030201600091509150508060000160009054906101000a900473ffffffffffffffffffffffffffffffffffffffff16908060010154908060020154905083565b600080600090505b600254811015612e0557606060056000600684815481101515612cd157fe5b9060005260206000200160009054906101000a900473ffffffffffffffffffffffffffffffffffffffff1673ffffffffffffffffffffffffffffffffffffffff1673ffffffffffffffffffffffffffffffffffffffff1681526020019081526020016000206001018054600181600116156101000203166002900480601f016020809104026020016040519081016040528092919081815260200182805460018160011615610100020316600290048015612dcd5780601f10612da257610100808354040283529160200191612dcd565b820191906000526020600020905b815481529060010190602001808311612db057829003601f168201915b50505050509050612ddd816136ce565b612de6856136ce565b1415612df757600092505050612e0b565b508080600101915050612cb2565b50600190505b919050565b600a81815481101515612e1f57fe5b906000526020600020016000915090505481565b606060008210158015612e47575060025482105b1515612e5257600080fd5b60056000600684815481101515612e6557fe5b9060005260206000200160009054906101000a900473ffffffffffffffffffffffffffffffffffffffff1673ffffffffffffffffffffffffffffffffffffffff1673ffffffffffffffffffffffffffffffffffffffff1681526020019081526020016000206001018054600181600116156101000203166002900480601f016020809104026020016040519081016040528092919081815260200182805460018160011615610100020316600290048015612f615780601f10612f3657610100808354040283529160200191612f61565b820191906000526020600020905b815481529060010190602001808311612f4457829003601f168201915b50505050509050919050565b6000600560003373ffffffffffffffffffffffffffffffffffffffff1673ffffffffffffffffffffffffffffffffffffffff16815260200190815260200160002060050154905090565b6060600080612fc46138cc565b600960003373ffffffffffffffffffffffffffffffffffffffff1673ffffffffffffffffffffffffffffffffffffffff1681526020019081526020016000208581548110151561301057fe5b9060005260206000209060030201606060405190810160405290816000820160009054906101000a900473ffffffffffffffffffffffffffffffffffffffff1673ffffffffffffffffffffffffffffffffffffffff1673ffffffffffffffffffffffffffffffffffffffff16815260200160018201548152602001600282015481525050905060056000826000015173ffffffffffffffffffffffffffffffffffffffff1673ffffffffffffffffffffffffffffffffffffffff16815260200190815260200160002060010181602001518260000151828054600181600116156101000203166002900480601f01602080910402602001604051908101604052809291908181526020018280546001816001161561010002031660029004801561317b5780601f106131505761010080835404028352916020019161317b565b820191906000526020600020905b81548152906001019060200180831161315e57829003601f168201915b50505050509250935093509350509193909250565b6000806007600084815260200190815260200160002060040160009054906101000a900473ffffffffffffffffffffffffffffffffffffffff16905060008090505b600560008373ffffffffffffffffffffffffffffffffffffffff1673ffffffffffffffffffffffffffffffffffffffff168152602001908152602001600020600501548110156133a9573373ffffffffffffffffffffffffffffffffffffffff16600960008473ffffffffffffffffffffffffffffffffffffffff1673ffffffffffffffffffffffffffffffffffffffff1681526020019081526020016000208281548110151561327f57fe5b906000526020600020906003020160000160009054906101000a900473ffffffffffffffffffffffffffffffffffffffff1673ffffffffffffffffffffffffffffffffffffffff16148015613330575083600960008473ffffffffffffffffffffffffffffffffffffffff1673ffffffffffffffffffffffffffffffffffffffff1681526020019081526020016000208281548110151561331c57fe5b906000526020600020906003020160010154145b1561339c57600960008373ffffffffffffffffffffffffffffffffffffffff1673ffffffffffffffffffffffffffffffffffffffff1681526020019081526020016000208181548110151561338157fe5b906000526020600020906003020160020154925050506133b0565b80806001019150506131d2565b5060009150505b919050565b60056020528060005260406000206000915090508060000160009054906101000a900473ffffffffffffffffffffffffffffffffffffffff1690806001018054600181600116156101000203166002900480601f0160208091040260200160405190810160405280929190818152602001828054600181600116156101000203166002900480156134875780601f1061345c57610100808354040283529160200191613487565b820191906000526020600020905b81548152906001019060200180831161346a57829003601f168201915b5050505050908060020154908060030160009054906101000a900460ff16908060040154908060050154905086565b6008602052816000526040600020818154811015156134d157fe5b90600052602060002001600091509150505481565b60008060008090505b60035481101561353457600a8181548110151561350857fe5b9060005260206000200154841415613527576001819250925050613540565b80806001019150506134ef565b50600080809050915091505b915091565b60008060008090505b600560008673ffffffffffffffffffffffffffffffffffffffff1673ffffffffffffffffffffffffffffffffffffffff1681526020019081526020016000206004015481101561361057600860008673ffffffffffffffffffffffffffffffffffffffff1673ffffffffffffffffffffffffffffffffffffffff168152602001908152602001600020818154811015156135e457fe5b906000526020600020015484141561360357600181925092505061361c565b808060010191505061354e565b50600080809050915091505b9250929050565b60008060008090505b6002548110156136bd5760068181548110151561364557fe5b9060005260206000200160009054906101000a900473ffffffffffffffffffffffffffffffffffffffff1673ffffffffffffffffffffffffffffffffffffffff168473ffffffffffffffffffffffffffffffffffffffff1614156136b05760018192509250506136c9565b808060010191505061362c565b50600080809050915091505b915091565b600060608290506000815114156136ec5760006001029150506136f5565b60208301519150505b919050565b50805460018160011615610100020316600290046000825580601f10613720575061373f565b601f01602090049060005260206000209081019061373e9190613904565b5b50565b60e060405190810160405280600073ffffffffffffffffffffffffffffffffffffffff16815260200160608152602001600081526020016000151581526020016000815260200160008152602001606081525090565b828054600181600116156101000203166002900490600052602060002090601f016020900481019282601f106137d957805160ff1916838001178555613807565b82800160010185558215613807579182015b828111156138065782518255916020019190600101906137eb565b5b5090506138149190613904565b5090565b828054828255906000526020600020908101928215613854579160200282015b82811115613853578251825591602001919060010190613838565b5b5090506138619190613904565b5090565b60a06040519081016040528060008152602001606081526020016060815260200160008152602001600073ffffffffffffffffffffffffffffffffffffffff1681525090565b50805460008255906000526020600020908101906138c99190613904565b50565b606060405190810160405280600073ffffffffffffffffffffffffffffffffffffffff16815260200160008152602001600081525090565b61392691905b8082111561392257600081600090555060010161390a565b5090565b9056fea165627a7a723058201ad3121800490ce1bc95a4d57a4959d8f9eeb608e830568da313793a83b9dff00029",
  "source": "pragma solidity ^0.5.0;\n\ncontract ControlAcceso {\n    address public owner;\n    address nullAddress = 0x0000000000000000000000000000000000000000;\n    uint public userCount;\n    uint public resourceCount;\n    uint public actualResourceId;\n    mapping(address => User) public addressToUser;\n    // mapping(uint => address) public idToUserAddress;\n    address[] public usersArray;\n\n    mapping(uint => Resource) public idToResource;\n    mapping(address => uint[]) public addressToResourcesId;\n    mapping(address => Request[]) public addressToRequests;\n    uint[] public resourcesArray;\n    // User[] users;\n\n    /*\n\n     */\n    struct User {\n        address userAddress;\n        string username;\n        uint id;\n        bool admin;\n        uint resourcesCount;\n        uint requestsCount;\n        uint[] allowedResources;\n\n    }\n\n    /*\n        id: Identificador del recurso.\n        name: Nombre del recurso.\n        description: Descripcin del recurso.\n        creationDate: Timestamp que indica la fecha de creacin del recurso.\n        creator: Address del creador del recurso.\n     */\n    struct Resource {\n        uint id;\n        string name;\n        string description;\n        uint creationDate;\n        address creator;\n    }\n\n    /*\n        Esta estructura representa una peticin de un recurso.\n        El usuario con address user solicita acceso al recurso\n        con id resource.\n        state:\n        - 0 Rechazado\n        - 1 Aceptado\n        - 2 Pendiente\n     */\n    struct Request {\n        address user;\n        uint resource;\n        uint state;\n    }\n\n    constructor() public {\n        owner = msg.sender;\n        resourceCount = 0;\n        actualResourceId = 0;\n        userCount = 1;\n        User memory _newUser = User(owner, \"admin\", userCount, true, 0, 0, new uint[](0));\n        addressToUser[owner] = _newUser;\n        // idToUserAddress[userCount] = owner;\n        usersArray.push(msg.sender);\n        emit CreateUser(owner, \"admin\", userCount, true);\n    }\n\n    modifier onlyOwner {\n        require(msg.sender == owner, \"Only owner can call this function\");\n        _;\n    }\n\n    modifier onlyAdmin {\n        // require(addressToUser[msg.sender].userAddress != nullAddress && addressToUser[msg.sender].admin == true, \"Only admins can call this function\");\n        require(addressToUser[msg.sender].admin == true, \"Only admins can call this function\");\n        _;\n    }\n\n    event CreateUser(\n        address userAddress,\n        string username,\n        uint id,\n        bool admin\n    );\n\n    event RemoveUser(\n        address userAddress\n    );\n\n    event CreateResource(\n        uint id,\n        string name,\n        string description,\n        address creator\n    );\n\n    event RemoveResource(\n        uint id\n    );\n\n    event RequestResource(\n        address user,\n        uint resource\n    );\n\n    event AcceptRequest(\n        address user,\n        uint resource,\n        bool allowed\n    );\n\n    function addUser(address _userAddress, string memory _username, bool _admin) public onlyAdmin {\n        require(checkUsername(_username), \"This username already exist\");\n        userCount++;\n        User memory _newUser = User(_userAddress, _username, userCount,_admin, 0, 0, new uint[](0));\n        addressToUser[_userAddress] = _newUser;\n        // idToUserAddress[userCount] = _userAddress;\n        usersArray.push(_userAddress);\n        emit CreateUser(_userAddress, _username, userCount, _admin);\n    }\n\n\n    /* \n        !!! Funcin de testeo, ELIMINAR O COMENTAR LUEGO.\n    */\n    function getUser(uint index) public view returns (string memory){\n        require(index >= 0 && index < userCount);\n        return addressToUser[usersArray[index]].username;\n    }\n\n    /*  Funcin que comprueba si un userame est en uso.\n        Disminuye mucho la eficiencia del contrato, pues puede \n        conllevar un gran gasto de gas al crecer el\n        nmero de usuarios. \n    */\n    function checkUsername(string memory _username) public view returns(bool) {\n         for(uint i=0; i<userCount; i++) {\n            // address exu = usersArray[i];\n            string memory aux = addressToUser[usersArray[i]].username;\n            //string memory aux = addressToUser[idToUserAddress[i]].username;\n            if(stringToBytes32(_username) == stringToBytes32(aux)) {\n                return false;\n            }\n        } \n        return true;\n    }\n\n    // Utilidad para pasar pasar de string a bytes32 y poder comparar cadenas.\n    function stringToBytes32(string memory source) private pure returns (bytes32 result) {\n        bytes memory tempEmptyStringTest = bytes(source);\n        if (tempEmptyStringTest.length == 0) {\n            return 0x0;\n        }\n\n        assembly {\n            result := mload(add(source, 32))\n        }\n    }\n\n    /*\n        Busca en el array de usuarios la posicin del usuario con address _user.\n        Devuelve una tupla con un booleano que indica si se ha encontrado y un \n        entero que indica la posicin donde se ha encontrado.\n     */\n    function findUserIndex(address _user) private view returns (bool, uint) {\n        for(uint i=0; i < userCount; i++) {\n            if(_user == usersArray[i]) {\n                return (true,i);\n            }\n        }\n        return (false, 0);\n    }\n\n    function removeUser(address _userAddress) public {\n        // requerir que sea admin o el propio usuario\n        if (addressToUser[_userAddress].userAddress != nullAddress) {\n            bool finded;\n            uint index;\n            (finded, index) = findUserIndex(_userAddress);\n\n            if(finded) {\n                address lastUser = usersArray[userCount-1];\n                addressToUser[lastUser].id = index+1; // puede que sobre\n                usersArray[index] = lastUser;\n                delete addressToUser[_userAddress];\n                delete usersArray[userCount-1];\n                emit RemoveUser(_userAddress);\n                userCount--;\n            }\n            /* uint _id = addressToUser[_userAddress].id;\n            delete addressToUser[_userAddress];\n            \n            \n            // address lastUser = idToUserAddress[userCount];\n            address lastUser = usersArray[userCount-1];\n            addressToUser[lastUser].id = _id;\n            // idToUserAddress[_id] = lastUser;\n            usersArray[_id-1] = lastUser;\n            //delete idToUserAddress[userCount];\n            delete usersArray[userCount-1];\n            emit RemoveUser(_userAddress);\n            userCount--; */\n        }\n    }\n\n    function addResource(string memory _name, string memory _description) public {\n        // requerir que el que aada un recurso sea un usuario registrado\n        resourceCount++;\n        actualResourceId++;\n        Resource memory _newResource = Resource(actualResourceId, _name, _description, now, msg.sender);\n        idToResource[actualResourceId] = _newResource;\n\n        addressToUser[msg.sender].resourcesCount++;\n        addressToResourcesId[msg.sender].push(actualResourceId);\n        resourcesArray.push(actualResourceId);\n\n        \n\n        emit CreateResource(actualResourceId, _name, _description, msg.sender);\n    }\n\n    /*\n        Busca en el array de recursos del usuario _user la posicin del recurso \n        con identificador _id.\n        Devuelve una tupla con un booleano que indica si se ha encontrado y un \n        entero que indica la posicin donde se ha encontrado.\n     */\n    function findUserResourceIndex(address _user, uint _id) private view returns (bool, uint) {\n        for(uint i=0; i < addressToUser[_user].resourcesCount; i++) {\n            if(_id == addressToResourcesId[_user][i]) {\n                return (true,i);\n            }\n        }\n        return (false, 0);\n    }\n\n    function findResourceIndex(uint _id) private view returns (bool, uint) {\n        for(uint i=0; i < resourceCount; i++) {\n            if(_id == resourcesArray[i]) {\n                return (true,i);\n            }\n        }\n        return (false, 0);\n    }\n\n\n\n    function removeResource(uint _id) public {\n        require (_id!=0 && _id <= actualResourceId);\n            bool finded;\n            uint index;\n            (finded, index) = findResourceIndex(_id);\n            if(finded) {\n                uint lastResource = resourcesArray[resourceCount-1];\n                resourcesArray[index] = lastResource;\n                delete resourcesArray[resourceCount-1];\n                (finded, index) = findUserResourceIndex(msg.sender, _id);\n\n                if(finded == true) {\n                    delete addressToResourcesId[msg.sender][index];\n                }\n                addressToUser[msg.sender].resourcesCount--;\n\n                \n                \n            } \n            delete idToResource[_id];\n                emit RemoveResource(_id);\n                resourceCount--;\n\n    }\n    /* \n        !!! Funcin de testeo, ELIMINAR O COMENTAR LUEGO.\n    */\n    function getResource(uint index) public view returns (string memory){\n        require(index >= 0, 'index fuera de rango');\n        return idToResource[resourcesArray[index]].name;\n    }\n\n    function requestResource(uint _id) public {\n        require(_id > 0 && idToResource[_id].id != 0, 'id fuera de rango');\n        User memory admin = addressToUser[idToResource[_id].creator];\n        addressToUser[admin.userAddress].requestsCount++;\n        // idToUser[admin.id].requestsCount++;\n        addressToRequests[admin.userAddress].push(Request(msg.sender,_id, 2));\n        emit RequestResource(msg.sender, _id);\n    }\n\n    function isRequested(uint _id) public view returns (address) {\n        require(msg.sender == idToResource[_id].creator, 'usuario no autorizado');\n        if(addressToUser[msg.sender].requestsCount == 0) {\n            return 0x0000000000000000000000000000000000000000;\n        }\n        else {\n            // Resource memory resource = idToResource[_id];\n            for(uint i = 0; i<addressToUser[msg.sender].requestsCount; i++) {\n                if(addressToRequests[msg.sender][i].resource == _id) {\n                    return addressToRequests[msg.sender][i].user;\n                }\n            }\n        }\n        return 0x0000000000000000000000000000000000000000;\n    }\n\n    /*\n        Si _accept = true, permite el acceso al usuario con\n        address _user el acceso al recurso _id.\n    */\n    function acceptRequest(address _user, uint _id, bool _accept) public {\n        require(_id != 0);\n        if(_accept) {\n            addressToUser[_user].allowedResources.push(_id);\n            emit AcceptRequest(_user, _id, _accept);\n            //User storage userAllowed = addressToUser[_user];\n            //userAllowed.allowedResources++;\n            //idToUser[userAllowed.id].allowedResources++;\n        }\n        for(uint i = 0; i < addressToUser[msg.sender].requestsCount; i++) {\n            if ((addressToRequests[msg.sender][i].resource == _id) && (addressToRequests[msg.sender][i].user == _user)) {\n                if(_accept) {\n                    addressToRequests[msg.sender][i].state = 1;\n                }\n                else {\n                    addressToRequests[msg.sender][i].state = 0;\n                }\n            }\n        }\n    }\n\n    /*\n        Devuelve la cantidad de peticiones que se le han hecho al usuario.\n    */\n    function getCountRequest() public view returns (uint) {\n        return addressToUser[msg.sender].requestsCount;\n    }\n\n    function getRequest(uint _id) public view returns (string memory, uint, address) {\n        //require(_id < addressToUser[msg.sender].countRequests && _id!=0);\n        Request memory _req = addressToRequests[msg.sender][_id];\n        return (addressToUser[_req.user].username, _req.resource, _req.user);\n    }\n\n    /*\n        Devuelve la cantidad de recursos a los que el usuario\n        tiene acceso.\n    */\n    function allowedCount() public view returns (uint) {\n        return(addressToUser[msg.sender].allowedResources.length);\n    }\n\n    function haveAccess(uint _id) public view returns (bool) {\n        require(_id != 0);\n        User memory _user = addressToUser[msg.sender];\n\n        if(_user.userAddress == idToResource[_id].creator) return true;\n\n        for(uint i = 0; i < _user.allowedResources.length; i++) {\n            if(_user.allowedResources[i] == _id) {\n                return true;\n            }\n        }\n        return false;\n    }\n\n    function getRequestState(uint _id) public view returns (uint) {\n        address _owner = idToResource[_id].creator;\n        for(uint i = 0; i < addressToUser[_owner].requestsCount; i++) {\n            if((addressToRequests[_owner][i].user == msg.sender) && (addressToRequests[_owner][i].resource == _id)) {\n                return addressToRequests[_owner][i].state;\n            }\n        }\n        return 0;\n    }\n\n} \n\n/*     function remove(uint index)  returns(User[] memory) {\n        if (index >= array.length) return;\n\n        for (uint i = index; i<array.length-1; i++){\n            array[i] = array[i+1];\n        }\n        delete array[array.length-1];\n        array.length--;\n        return array;\n    } */\n\n/* contract ControlAcceso {\n    address public owner;\n    uint public userCount;\n    uint public resourceCount;\n    uint public actualResourceId;\n    address public user;\n    mapping (address => User) public addressToUser;\n    mapping (uint => User) public idToUser;\n    mapping (uint => Resource) public idToResource;\n    mapping (address => uint[]) userResources;\n    mapping (address => Request[]) userRequest;\n    mapping (address => uint[]) allowedResources;\n\n    struct Resource {\n        uint id;\n        string name;\n        string organization;\n        address userAdmin;\n    }\n\n    struct User {\n        address user;\n        uint id;\n        bool admin;\n        uint adminResources;\n        uint countRequests;\n        uint allowedResources;\n    }\n\n    struct Request {\n        address user;\n        uint resource;\n    }\n\n    event CreateResource(\n        uint id,\n        string name,\n        string organization,\n        address userAdmin\n    );\n\n    event RemoveResource(\n        uint id\n    );\n\n    event CreateUser(\n        address user,\n        uint id,\n        bool admin,\n        uint adminResources,\n        uint countRequests,\n        uint allowedResources\n    );\n\n    event RemoveUser(\n        address user,\n        uint id\n    );\n\n    modifier onlyOwner {\n        require(msg.sender == owner, \"Only owner can call this function\");\n        _;\n    }\n\n    modifier onlyAdmin {\n        require(addressToUser[msg.sender].id != 0 && addressToUser[msg.sender].admin == true, \"Only admins can call this function\");\n        _;\n    }\n\n    //mapping(uint => address) public users;\n    constructor() public {\n        owner = msg.sender;\n        userCount = 0;\n        resourceCount = 0;\n        actualResourceId = 0;\n        // userCount ++;\n        user = 0xAf212b1d492E73c6bF1F542A703dAEB877f42e89;\n        addUser(owner, true);\n    }\n\n    function addUser(address _userAddress, bool _admin) public {\n        uint id = addressToUser[_userAddress].id;\n        if (id == 0) {\n            userCount++;\n            id = userCount; \n            addressToUser[_userAddress] = User(_userAddress, id, _admin, 0, 0, 0);\n            idToUser[id] = User(_userAddress, id, _admin, 0, 0, 0);\n            emit CreateUser(_userAddress, id, _admin, 0, 0, 0);\n        }\n        // users[id] = _userAddress; // Por esto falla el migrate\n    }\n\n    function removeUser(address _userAddress) public {\n        uint id = addressToUser[_userAddress].id;\n        if (id != 0) {\n            userCount--;\n            delete addressToUser[_userAddress];\n            delete idToUser[id];\n            emit RemoveUser(_userAddress, id);\n        }\n        // users[id] = _userAddress; // Por esto falla el migrate\n    }\n\n    function addResource(string memory _name, string memory _organization) public {\n        resourceCount++;\n        actualResourceId++;\n        uint _id = actualResourceId;\n        userResources[msg.sender].push(_id);\n        addressToUser[msg.sender].adminResources++;\n        idToResource[_id] = Resource(_id, _name, _organization, msg.sender);\n        emit CreateResource(_id, _name, _organization, msg.sender);       \n    }\n\n    function removeResource(uint _id) public {\n        if (_id!=0) {\n            resourceCount--;\n            addressToUser[msg.sender].adminResources--;\n            delete idToResource[_id];\n            emit RemoveResource(_id);\n        }      \n    }\n\n    function requestResource(uint _id) public {\n        require(_id != 0);\n        User storage admin = addressToUser[idToResource[_id].userAdmin];\n        idToUser[admin.id].countRequests++;\n        addressToUser[idToResource[_id].userAdmin].countRequests++;\n        userRequest[admin.user].push(Request(msg.sender,_id));\n    }\n\n    function isRequested(uint _id) public view returns (address) {\n        require(msg.sender == idToResource[_id].userAdmin);\n        if(addressToUser[msg.sender].countRequests == 0) {\n            return 0x0000000000000000000000000000000000000000;\n        }\n        else {\n            // Resource memory resource = idToResource[_id];\n            for(uint i = 0; i<addressToUser[msg.sender].countRequests; i++) {\n                if(userRequest[msg.sender][i].resource == _id) {\n                    return userRequest[msg.sender][i].user;\n                }\n            }\n        }\n        return 0x0000000000000000000000000000000000000000;\n    }\n\n    function acceptRequest(address _user, uint _id, bool _accept) public {\n        require(_id != 0);\n        if(_accept) {\n            allowedResources[_user].push(_id);\n            User storage userAllowed = addressToUser[_user];\n            userAllowed.allowedResources++;\n            idToUser[userAllowed.id].allowedResources++;\n        }\n    }\n\n    function haveAccess(uint _id) public view returns (bool) {\n        require(_id != 0);\n        User memory _user = addressToUser[msg.sender];\n        for(uint i=0; i<_user.allowedResources; i++) {\n            if(allowedResources[_user.user][i] == _id) {\n                return true;\n            }\n        }\n        return false;\n    }\n\n    function getCountRequest() public view returns (uint) {\n        return addressToUser[msg.sender].countRequests;\n    }\n\n    function getRequest(uint _id) public view returns (address, uint) {\n        //require(_id < addressToUser[msg.sender].countRequests && _id!=0);\n        return (userRequest[msg.sender][_id].user, userRequest[msg.sender][_id].resource);\n    }\n\n    function getRequestUser(uint _id) public view returns (address)  {\n        require(_id < addressToUser[msg.sender].countRequests && _id!=0);\n        return userRequest[msg.sender][_id].user;\n\n    }\n\n    function getRequestResource(uint _id) public view returns (uint)  {\n        require(_id < addressToUser[msg.sender].countRequests && _id!=0);\n\n        return userRequest[msg.sender][_id].resource;\n    }\n}\n */",
  "sourcePath": "/home/yisus/Documentos/IngenieriaInformatica/Cuarto/Segundo Cuatrimestre/Control-Acceso-Blockchain/contracts/ControlAcceso.sol",
  "compiler": {
    "name": "solc",
    "version": "0.5.0+commit.1d4f565a.Emscripten.clang"
  },
  "schemaVersion": "3.0.6",
  "updatedAt": "2019-05-10T13:40:50.013Z",
  "devdoc": {
    "methods": {}
  },
  "userdoc": {
    "methods": {}
  }
}