{
  "contractName": "ControlAcceso",
  "abi": [
    {
      "constant": true,
      "inputs": [],
      "name": "userCount",
      "outputs": [
        {
          "name": "",
          "type": "uint256"
        }
      ],
      "payable": false,
      "stateMutability": "view",
      "type": "function",
      "signature": "0x07973ccf"
    },
    {
      "constant": true,
      "inputs": [],
      "name": "resourceCount",
      "outputs": [
        {
          "name": "",
          "type": "uint256"
        }
      ],
      "payable": false,
      "stateMutability": "view",
      "type": "function",
      "signature": "0x0a3fa24a"
    },
    {
      "constant": true,
      "inputs": [],
      "name": "actualResourceId",
      "outputs": [
        {
          "name": "",
          "type": "uint256"
        }
      ],
      "payable": false,
      "stateMutability": "view",
      "type": "function",
      "signature": "0x1b8d826b"
    },
    {
      "constant": true,
      "inputs": [],
      "name": "user",
      "outputs": [
        {
          "name": "",
          "type": "address"
        }
      ],
      "payable": false,
      "stateMutability": "view",
      "type": "function",
      "signature": "0x4f8632ba"
    },
    {
      "constant": true,
      "inputs": [],
      "name": "owner",
      "outputs": [
        {
          "name": "",
          "type": "address"
        }
      ],
      "payable": false,
      "stateMutability": "view",
      "type": "function",
      "signature": "0x8da5cb5b"
    },
    {
      "constant": true,
      "inputs": [
        {
          "name": "",
          "type": "uint256"
        }
      ],
      "name": "idToUser",
      "outputs": [
        {
          "name": "user",
          "type": "address"
        },
        {
          "name": "id",
          "type": "uint256"
        },
        {
          "name": "admin",
          "type": "bool"
        },
        {
          "name": "adminResources",
          "type": "uint256"
        },
        {
          "name": "countRequests",
          "type": "uint256"
        },
        {
          "name": "allowedResources",
          "type": "uint256"
        }
      ],
      "payable": false,
      "stateMutability": "view",
      "type": "function",
      "signature": "0x8dc22cba"
    },
    {
      "constant": true,
      "inputs": [
        {
          "name": "",
          "type": "uint256"
        }
      ],
      "name": "idToResource",
      "outputs": [
        {
          "name": "id",
          "type": "uint256"
        },
        {
          "name": "name",
          "type": "string"
        },
        {
          "name": "organization",
          "type": "string"
        },
        {
          "name": "userAdmin",
          "type": "address"
        }
      ],
      "payable": false,
      "stateMutability": "view",
      "type": "function",
      "signature": "0x900b6cab"
    },
    {
      "constant": true,
      "inputs": [
        {
          "name": "",
          "type": "address"
        }
      ],
      "name": "addressToUser",
      "outputs": [
        {
          "name": "user",
          "type": "address"
        },
        {
          "name": "id",
          "type": "uint256"
        },
        {
          "name": "admin",
          "type": "bool"
        },
        {
          "name": "adminResources",
          "type": "uint256"
        },
        {
          "name": "countRequests",
          "type": "uint256"
        },
        {
          "name": "allowedResources",
          "type": "uint256"
        }
      ],
      "payable": false,
      "stateMutability": "view",
      "type": "function",
      "signature": "0xedf53886"
    },
    {
      "inputs": [],
      "payable": false,
      "stateMutability": "nonpayable",
      "type": "constructor",
      "signature": "constructor"
    },
    {
      "anonymous": false,
      "inputs": [
        {
          "indexed": false,
          "name": "id",
          "type": "uint256"
        },
        {
          "indexed": false,
          "name": "name",
          "type": "string"
        },
        {
          "indexed": false,
          "name": "organization",
          "type": "string"
        },
        {
          "indexed": false,
          "name": "userAdmin",
          "type": "address"
        }
      ],
      "name": "CreateResource",
      "type": "event",
      "signature": "0x03a31eda3264898c9097bb2d2f45e34d3ff307b9e040196195632ba7a7bf4e38"
    },
    {
      "anonymous": false,
      "inputs": [
        {
          "indexed": false,
          "name": "id",
          "type": "uint256"
        }
      ],
      "name": "RemoveResource",
      "type": "event",
      "signature": "0xdd673f98c4d2d29b73520888ecb759f89c4544d4a9e1cc2393d546ebe32fd63c"
    },
    {
      "anonymous": false,
      "inputs": [
        {
          "indexed": false,
          "name": "user",
          "type": "address"
        },
        {
          "indexed": false,
          "name": "id",
          "type": "uint256"
        },
        {
          "indexed": false,
          "name": "admin",
          "type": "bool"
        },
        {
          "indexed": false,
          "name": "adminResources",
          "type": "uint256"
        },
        {
          "indexed": false,
          "name": "countRequests",
          "type": "uint256"
        },
        {
          "indexed": false,
          "name": "allowedResources",
          "type": "uint256"
        }
      ],
      "name": "CreateUser",
      "type": "event",
      "signature": "0xc1c4680a69da395b5ddc6f4a49b2f52c0743091886f585cdf7f6dff7b07f3191"
    },
    {
      "anonymous": false,
      "inputs": [
        {
          "indexed": false,
          "name": "user",
          "type": "address"
        },
        {
          "indexed": false,
          "name": "id",
          "type": "uint256"
        }
      ],
      "name": "RemoveUser",
      "type": "event",
      "signature": "0xf4875fe9528f80a85b09c0ddc2e3fb332b4670d0190065c1495a1ba58af8206c"
    },
    {
      "constant": false,
      "inputs": [
        {
          "name": "_userAddress",
          "type": "address"
        },
        {
          "name": "_admin",
          "type": "bool"
        }
      ],
      "name": "addUser",
      "outputs": [],
      "payable": false,
      "stateMutability": "nonpayable",
      "type": "function",
      "signature": "0xab2b3a80"
    },
    {
      "constant": false,
      "inputs": [
        {
          "name": "_userAddress",
          "type": "address"
        }
      ],
      "name": "removeUser",
      "outputs": [],
      "payable": false,
      "stateMutability": "nonpayable",
      "type": "function",
      "signature": "0x98575188"
    },
    {
      "constant": false,
      "inputs": [
        {
          "name": "_name",
          "type": "string"
        },
        {
          "name": "_organization",
          "type": "string"
        }
      ],
      "name": "addResource",
      "outputs": [],
      "payable": false,
      "stateMutability": "nonpayable",
      "type": "function",
      "signature": "0x8d225030"
    },
    {
      "constant": false,
      "inputs": [
        {
          "name": "_id",
          "type": "uint256"
        }
      ],
      "name": "removeResource",
      "outputs": [],
      "payable": false,
      "stateMutability": "nonpayable",
      "type": "function",
      "signature": "0x01b98339"
    },
    {
      "constant": false,
      "inputs": [
        {
          "name": "_id",
          "type": "uint256"
        }
      ],
      "name": "requestResource",
      "outputs": [],
      "payable": false,
      "stateMutability": "nonpayable",
      "type": "function",
      "signature": "0x11d08676"
    },
    {
      "constant": true,
      "inputs": [
        {
          "name": "_id",
          "type": "uint256"
        }
      ],
      "name": "isRequested",
      "outputs": [
        {
          "name": "",
          "type": "address"
        }
      ],
      "payable": false,
      "stateMutability": "view",
      "type": "function",
      "signature": "0x155fec72"
    },
    {
      "constant": false,
      "inputs": [
        {
          "name": "_user",
          "type": "address"
        },
        {
          "name": "_id",
          "type": "uint256"
        },
        {
          "name": "_accept",
          "type": "bool"
        }
      ],
      "name": "acceptRequest",
      "outputs": [],
      "payable": false,
      "stateMutability": "nonpayable",
      "type": "function",
      "signature": "0x6e1346ed"
    },
    {
      "constant": true,
      "inputs": [
        {
          "name": "_id",
          "type": "uint256"
        }
      ],
      "name": "haveAccess",
      "outputs": [
        {
          "name": "",
          "type": "bool"
        }
      ],
      "payable": false,
      "stateMutability": "view",
      "type": "function",
      "signature": "0x2212b16e"
    },
    {
      "constant": true,
      "inputs": [],
      "name": "getCountRequest",
      "outputs": [
        {
          "name": "",
          "type": "uint256"
        }
      ],
      "payable": false,
      "stateMutability": "view",
      "type": "function",
      "signature": "0xc510d96d"
    },
    {
      "constant": true,
      "inputs": [
        {
          "name": "_id",
          "type": "uint256"
        }
      ],
      "name": "getRequest",
      "outputs": [
        {
          "name": "",
          "type": "address"
        },
        {
          "name": "",
          "type": "uint256"
        }
      ],
      "payable": false,
      "stateMutability": "view",
      "type": "function",
      "signature": "0xc58343ef"
    },
    {
      "constant": true,
      "inputs": [
        {
          "name": "_id",
          "type": "uint256"
        }
      ],
      "name": "getRequestUser",
      "outputs": [
        {
          "name": "",
          "type": "address"
        }
      ],
      "payable": false,
      "stateMutability": "view",
      "type": "function",
      "signature": "0xe8538889"
    },
    {
      "constant": true,
      "inputs": [
        {
          "name": "_id",
          "type": "uint256"
        }
      ],
      "name": "getRequestResource",
      "outputs": [
        {
          "name": "",
          "type": "uint256"
        }
      ],
      "payable": false,
      "stateMutability": "view",
      "type": "function",
      "signature": "0x3284a4ba"
    }
  ],
  "bytecode": "0x608060405234801561001057600080fd5b50336000806101000a81548173ffffffffffffffffffffffffffffffffffffffff021916908373ffffffffffffffffffffffffffffffffffffffff16021790555060006001819055506000600281905550600060038190555073af212b1d492e73c6bf1f542a703daeb877f42e89600460006101000a81548173ffffffffffffffffffffffffffffffffffffffff021916908373ffffffffffffffffffffffffffffffffffffffff1602179055506100f96000809054906101000a900473ffffffffffffffffffffffffffffffffffffffff1660016100fe640100000000026401000000009004565b610404565b6000600560008473ffffffffffffffffffffffffffffffffffffffff1673ffffffffffffffffffffffffffffffffffffffff16815260200190815260200160002060010154905060008114156103ff57600160008154809291906001019190505550600154905060c0604051908101604052808473ffffffffffffffffffffffffffffffffffffffff168152602001828152602001831515815260200160008152602001600081526020016000815250600560008573ffffffffffffffffffffffffffffffffffffffff1673ffffffffffffffffffffffffffffffffffffffff16815260200190815260200160002060008201518160000160006101000a81548173ffffffffffffffffffffffffffffffffffffffff021916908373ffffffffffffffffffffffffffffffffffffffff1602179055506020820151816001015560408201518160020160006101000a81548160ff021916908315150217905550606082015181600301556080820151816004015560a0820151816005015590505060c0604051908101604052808473ffffffffffffffffffffffffffffffffffffffff1681526020018281526020018315158152602001600081526020016000815260200160008152506006600083815260200190815260200160002060008201518160000160006101000a81548173ffffffffffffffffffffffffffffffffffffffff021916908373ffffffffffffffffffffffffffffffffffffffff1602179055506020820151816001015560408201518160020160006101000a81548160ff021916908315150217905550606082015181600301556080820151816004015560a082015181600501559050507fc1c4680a69da395b5ddc6f4a49b2f52c0743091886f585cdf7f6dff7b07f31918382846000806000604051808773ffffffffffffffffffffffffffffffffffffffff1673ffffffffffffffffffffffffffffffffffffffff16815260200186815260200185151515158152602001848152602001838152602001828152602001965050505050505060405180910390a15b505050565b61211e806104136000396000f3fe608060405260043610610112576000357c0100000000000000000000000000000000000000000000000000000000900463ffffffff16806301b983391461011757806307973ccf146101525780630a3fa24a1461017d57806311d08676146101a8578063155fec72146101e35780631b8d826b1461025e5780632212b16e146102895780633284a4ba146102dc5780634f8632ba1461032b5780636e1346ed146103825780638d225030146103e95780638da5cb5b146105485780638dc22cba1461059f578063900b6cab14610641578063985751881461079b578063ab2b3a80146107ec578063c510d96d14610849578063c58343ef14610874578063e8538889146108f6578063edf5388614610971575b600080fd5b34801561012357600080fd5b506101506004803603602081101561013a57600080fd5b8101908080359060200190929190505050610a29565b005b34801561015e57600080fd5b50610167610b39565b6040518082815260200191505060405180910390f35b34801561018957600080fd5b50610192610b3f565b6040518082815260200191505060405180910390f35b3480156101b457600080fd5b506101e1600480360360208110156101cb57600080fd5b8101908080359060200190929190505050610b45565b005b3480156101ef57600080fd5b5061021c6004803603602081101561020657600080fd5b8101908080359060200190929190505050610d91565b604051808273ffffffffffffffffffffffffffffffffffffffff1673ffffffffffffffffffffffffffffffffffffffff16815260200191505060405180910390f35b34801561026a57600080fd5b50610273610faa565b6040518082815260200191505060405180910390f35b34801561029557600080fd5b506102c2600480360360208110156102ac57600080fd5b8101908080359060200190929190505050610fb0565b604051808215151515815260200191505060405180910390f35b3480156102e857600080fd5b50610315600480360360208110156102ff57600080fd5b8101908080359060200190929190505050611147565b6040518082815260200191505060405180910390f35b34801561033757600080fd5b5061034061120b565b604051808273ffffffffffffffffffffffffffffffffffffffff1673ffffffffffffffffffffffffffffffffffffffff16815260200191505060405180910390f35b34801561038e57600080fd5b506103e7600480360360608110156103a557600080fd5b81019080803573ffffffffffffffffffffffffffffffffffffffff16906020019092919080359060200190929190803515159060200190929190505050611231565b005b3480156103f557600080fd5b506105466004803603604081101561040c57600080fd5b810190808035906020019064010000000081111561042957600080fd5b82018360208201111561043b57600080fd5b8035906020019184600183028401116401000000008311171561045d57600080fd5b91908080601f016020809104026020016040519081016040528093929190818152602001838380828437600081840152601f19601f820116905080830192505050505050509192919290803590602001906401000000008111156104c057600080fd5b8201836020820111156104d257600080fd5b803590602001918460018302840111640100000000831117156104f457600080fd5b91908080601f016020809104026020016040519081016040528093929190818152602001838380828437600081840152601f19601f820116905080830192505050505050509192919290505050611338565b005b34801561055457600080fd5b5061055d611641565b604051808273ffffffffffffffffffffffffffffffffffffffff1673ffffffffffffffffffffffffffffffffffffffff16815260200191505060405180910390f35b3480156105ab57600080fd5b506105d8600480360360208110156105c257600080fd5b8101908080359060200190929190505050611666565b604051808773ffffffffffffffffffffffffffffffffffffffff1673ffffffffffffffffffffffffffffffffffffffff16815260200186815260200185151515158152602001848152602001838152602001828152602001965050505050505060405180910390f35b34801561064d57600080fd5b5061067a6004803603602081101561066457600080fd5b81019080803590602001909291905050506116cf565b6040518085815260200180602001806020018473ffffffffffffffffffffffffffffffffffffffff1673ffffffffffffffffffffffffffffffffffffffff168152602001838103835286818151815260200191508051906020019080838360005b838110156106f65780820151818401526020810190506106db565b50505050905090810190601f1680156107235780820380516001836020036101000a031916815260200191505b50838103825285818151815260200191508051906020019080838360005b8381101561075c578082015181840152602081019050610741565b50505050905090810190601f1680156107895780820380516001836020036101000a031916815260200191505b50965050505050505060405180910390f35b3480156107a757600080fd5b506107ea600480360360208110156107be57600080fd5b81019080803573ffffffffffffffffffffffffffffffffffffffff16906020019092919050505061184f565b005b3480156107f857600080fd5b506108476004803603604081101561080f57600080fd5b81019080803573ffffffffffffffffffffffffffffffffffffffff169060200190929190803515159060200190929190505050611a31565b005b34801561085557600080fd5b5061085e611d37565b6040518082815260200191505060405180910390f35b34801561088057600080fd5b506108ad6004803603602081101561089757600080fd5b8101908080359060200190929190505050611d81565b604051808373ffffffffffffffffffffffffffffffffffffffff1673ffffffffffffffffffffffffffffffffffffffff1681526020018281526020019250505060405180910390f35b34801561090257600080fd5b5061092f6004803603602081101561091957600080fd5b8101908080359060200190929190505050611e69565b604051808273ffffffffffffffffffffffffffffffffffffffff1673ffffffffffffffffffffffffffffffffffffffff16815260200191505060405180910390f35b34801561097d57600080fd5b506109c06004803603602081101561099457600080fd5b81019080803573ffffffffffffffffffffffffffffffffffffffff169060200190929190505050611f4d565b604051808773ffffffffffffffffffffffffffffffffffffffff1673ffffffffffffffffffffffffffffffffffffffff16815260200186815260200185151515158152602001848152602001838152602001828152602001965050505050505060405180910390f35b600081141515610b365760026000815480929190600190039190505550600560003373ffffffffffffffffffffffffffffffffffffffff1673ffffffffffffffffffffffffffffffffffffffff168152602001908152602001600020600301600081548092919060019003919050555060076000828152602001908152602001600020600080820160009055600182016000610ac59190611fb6565b600282016000610ad59190611fb6565b6003820160006101000a81549073ffffffffffffffffffffffffffffffffffffffff021916905550507fdd673f98c4d2d29b73520888ecb759f89c4544d4a9e1cc2393d546ebe32fd63c816040518082815260200191505060405180910390a15b50565b60015481565b60025481565b60008114151515610b5557600080fd5b6000600560006007600085815260200190815260200160002060030160009054906101000a900473ffffffffffffffffffffffffffffffffffffffff1673ffffffffffffffffffffffffffffffffffffffff1673ffffffffffffffffffffffffffffffffffffffff1681526020019081526020016000209050600660008260010154815260200190815260200160002060040160008154809291906001019190505550600560006007600085815260200190815260200160002060030160009054906101000a900473ffffffffffffffffffffffffffffffffffffffff1673ffffffffffffffffffffffffffffffffffffffff1673ffffffffffffffffffffffffffffffffffffffff16815260200190815260200160002060040160008154809291906001019190505550600960008260000160009054906101000a900473ffffffffffffffffffffffffffffffffffffffff1673ffffffffffffffffffffffffffffffffffffffff1673ffffffffffffffffffffffffffffffffffffffff16815260200190815260200160002060408051908101604052803373ffffffffffffffffffffffffffffffffffffffff168152602001848152509080600181540180825580915050906001820390600052602060002090600202016000909192909190915060008201518160000160006101000a81548173ffffffffffffffffffffffffffffffffffffffff021916908373ffffffffffffffffffffffffffffffffffffffff160217905550602082015181600101555050505050565b60006007600083815260200190815260200160002060030160009054906101000a900473ffffffffffffffffffffffffffffffffffffffff1673ffffffffffffffffffffffffffffffffffffffff163373ffffffffffffffffffffffffffffffffffffffff16141515610e0357600080fd5b6000600560003373ffffffffffffffffffffffffffffffffffffffff1673ffffffffffffffffffffffffffffffffffffffff168152602001908152602001600020600401541415610e575760009050610fa5565b60008090505b600560003373ffffffffffffffffffffffffffffffffffffffff1673ffffffffffffffffffffffffffffffffffffffff16815260200190815260200160002060040154811015610f9f5782600960003373ffffffffffffffffffffffffffffffffffffffff1673ffffffffffffffffffffffffffffffffffffffff16815260200190815260200160002082815481101515610ef457fe5b9060005260206000209060020201600101541415610f9257600960003373ffffffffffffffffffffffffffffffffffffffff1673ffffffffffffffffffffffffffffffffffffffff16815260200190815260200160002081815481101515610f5857fe5b906000526020600020906002020160000160009054906101000a900473ffffffffffffffffffffffffffffffffffffffff16915050610fa5565b8080600101915050610e5d565b50600090505b919050565b60035481565b6000808214151515610fc157600080fd5b610fc9611ffe565b600560003373ffffffffffffffffffffffffffffffffffffffff1673ffffffffffffffffffffffffffffffffffffffff16815260200190815260200160002060c060405190810160405290816000820160009054906101000a900473ffffffffffffffffffffffffffffffffffffffff1673ffffffffffffffffffffffffffffffffffffffff1673ffffffffffffffffffffffffffffffffffffffff168152602001600182015481526020016002820160009054906101000a900460ff161515151581526020016003820154815260200160048201548152602001600582015481525050905060008090505b8160a0015181101561113b5783600a6000846000015173ffffffffffffffffffffffffffffffffffffffff1673ffffffffffffffffffffffffffffffffffffffff1681526020019081526020016000208281548110151561111257fe5b9060005260206000200154141561112e57600192505050611142565b80806001019150506110b5565b5060009150505b919050565b6000600560003373ffffffffffffffffffffffffffffffffffffffff1673ffffffffffffffffffffffffffffffffffffffff168152602001908152602001600020600401548210801561119b575060008214155b15156111a657600080fd5b600960003373ffffffffffffffffffffffffffffffffffffffff1673ffffffffffffffffffffffffffffffffffffffff168152602001908152602001600020828154811015156111f257fe5b9060005260206000209060020201600101549050919050565b600460009054906101000a900473ffffffffffffffffffffffffffffffffffffffff1681565b6000821415151561124157600080fd5b801561133357600a60008473ffffffffffffffffffffffffffffffffffffffff1673ffffffffffffffffffffffffffffffffffffffff1681526020019081526020016000208290806001815401808255809150509060018203906000526020600020016000909192909190915055506000600560008573ffffffffffffffffffffffffffffffffffffffff1673ffffffffffffffffffffffffffffffffffffffff16815260200190815260200160002090508060050160008154809291906001019190505550600660008260010154815260200190815260200160002060050160008154809291906001019190505550505b505050565b60026000815480929190600101919050555060036000815480929190600101919050555060006003549050600860003373ffffffffffffffffffffffffffffffffffffffff1673ffffffffffffffffffffffffffffffffffffffff168152602001908152602001600020819080600181540180825580915050906001820390600052602060002001600090919290919091505550600560003373ffffffffffffffffffffffffffffffffffffffff1673ffffffffffffffffffffffffffffffffffffffff168152602001908152602001600020600301600081548092919060010191905055506080604051908101604052808281526020018481526020018381526020013373ffffffffffffffffffffffffffffffffffffffff168152506007600083815260200190815260200160002060008201518160000155602082015181600101908051906020019061148f92919061204d565b5060408201518160020190805190602001906114ac92919061204d565b5060608201518160030160006101000a81548173ffffffffffffffffffffffffffffffffffffffff021916908373ffffffffffffffffffffffffffffffffffffffff1602179055509050507f03a31eda3264898c9097bb2d2f45e34d3ff307b9e040196195632ba7a7bf4e38818484336040518085815260200180602001806020018473ffffffffffffffffffffffffffffffffffffffff1673ffffffffffffffffffffffffffffffffffffffff168152602001838103835286818151815260200191508051906020019080838360005b8381101561159857808201518184015260208101905061157d565b50505050905090810190601f1680156115c55780820380516001836020036101000a031916815260200191505b50838103825285818151815260200191508051906020019080838360005b838110156115fe5780820151818401526020810190506115e3565b50505050905090810190601f16801561162b5780820380516001836020036101000a031916815260200191505b50965050505050505060405180910390a1505050565b6000809054906101000a900473ffffffffffffffffffffffffffffffffffffffff1681565b60066020528060005260406000206000915090508060000160009054906101000a900473ffffffffffffffffffffffffffffffffffffffff16908060010154908060020160009054906101000a900460ff16908060030154908060040154908060050154905086565b6007602052806000526040600020600091509050806000015490806001018054600181600116156101000203166002900480601f0160208091040260200160405190810160405280929190818152602001828054600181600116156101000203166002900480156117815780601f1061175657610100808354040283529160200191611781565b820191906000526020600020905b81548152906001019060200180831161176457829003601f168201915b505050505090806002018054600181600116156101000203166002900480601f01602080910402602001604051908101604052809291908181526020018280546001816001161561010002031660029004801561181f5780601f106117f45761010080835404028352916020019161181f565b820191906000526020600020905b81548152906001019060200180831161180257829003601f168201915b5050505050908060030160009054906101000a900473ffffffffffffffffffffffffffffffffffffffff16905084565b6000600560008373ffffffffffffffffffffffffffffffffffffffff1673ffffffffffffffffffffffffffffffffffffffff168152602001908152602001600020600101549050600081141515611a2d5760016000815480929190600190039190505550600560008373ffffffffffffffffffffffffffffffffffffffff1673ffffffffffffffffffffffffffffffffffffffff168152602001908152602001600020600080820160006101000a81549073ffffffffffffffffffffffffffffffffffffffff021916905560018201600090556002820160006101000a81549060ff0219169055600382016000905560048201600090556005820160009055505060066000828152602001908152602001600020600080820160006101000a81549073ffffffffffffffffffffffffffffffffffffffff021916905560018201600090556002820160006101000a81549060ff021916905560038201600090556004820160009055600582016000905550507ff4875fe9528f80a85b09c0ddc2e3fb332b4670d0190065c1495a1ba58af8206c8282604051808373ffffffffffffffffffffffffffffffffffffffff1673ffffffffffffffffffffffffffffffffffffffff1681526020018281526020019250505060405180910390a15b5050565b6000600560008473ffffffffffffffffffffffffffffffffffffffff1673ffffffffffffffffffffffffffffffffffffffff1681526020019081526020016000206001015490506000811415611d3257600160008154809291906001019190505550600154905060c0604051908101604052808473ffffffffffffffffffffffffffffffffffffffff168152602001828152602001831515815260200160008152602001600081526020016000815250600560008573ffffffffffffffffffffffffffffffffffffffff1673ffffffffffffffffffffffffffffffffffffffff16815260200190815260200160002060008201518160000160006101000a81548173ffffffffffffffffffffffffffffffffffffffff021916908373ffffffffffffffffffffffffffffffffffffffff1602179055506020820151816001015560408201518160020160006101000a81548160ff021916908315150217905550606082015181600301556080820151816004015560a0820151816005015590505060c0604051908101604052808473ffffffffffffffffffffffffffffffffffffffff1681526020018281526020018315158152602001600081526020016000815260200160008152506006600083815260200190815260200160002060008201518160000160006101000a81548173ffffffffffffffffffffffffffffffffffffffff021916908373ffffffffffffffffffffffffffffffffffffffff1602179055506020820151816001015560408201518160020160006101000a81548160ff021916908315150217905550606082015181600301556080820151816004015560a082015181600501559050507fc1c4680a69da395b5ddc6f4a49b2f52c0743091886f585cdf7f6dff7b07f31918382846000806000604051808773ffffffffffffffffffffffffffffffffffffffff1673ffffffffffffffffffffffffffffffffffffffff16815260200186815260200185151515158152602001848152602001838152602001828152602001965050505050505060405180910390a15b505050565b6000600560003373ffffffffffffffffffffffffffffffffffffffff1673ffffffffffffffffffffffffffffffffffffffff16815260200190815260200160002060040154905090565b600080600960003373ffffffffffffffffffffffffffffffffffffffff1673ffffffffffffffffffffffffffffffffffffffff16815260200190815260200160002083815481101515611dd057fe5b906000526020600020906002020160000160009054906101000a900473ffffffffffffffffffffffffffffffffffffffff16600960003373ffffffffffffffffffffffffffffffffffffffff1673ffffffffffffffffffffffffffffffffffffffff16815260200190815260200160002084815481101515611e4e57fe5b90600052602060002090600202016001015491509150915091565b6000600560003373ffffffffffffffffffffffffffffffffffffffff1673ffffffffffffffffffffffffffffffffffffffff1681526020019081526020016000206004015482108015611ebd575060008214155b1515611ec857600080fd5b600960003373ffffffffffffffffffffffffffffffffffffffff1673ffffffffffffffffffffffffffffffffffffffff16815260200190815260200160002082815481101515611f1457fe5b906000526020600020906002020160000160009054906101000a900473ffffffffffffffffffffffffffffffffffffffff169050919050565b60056020528060005260406000206000915090508060000160009054906101000a900473ffffffffffffffffffffffffffffffffffffffff16908060010154908060020160009054906101000a900460ff16908060030154908060040154908060050154905086565b50805460018160011615610100020316600290046000825580601f10611fdc5750611ffb565b601f016020900490600052602060002090810190611ffa91906120cd565b5b50565b60c060405190810160405280600073ffffffffffffffffffffffffffffffffffffffff168152602001600081526020016000151581526020016000815260200160008152602001600081525090565b828054600181600116156101000203166002900490600052602060002090601f016020900481019282601f1061208e57805160ff19168380011785556120bc565b828001600101855582156120bc579182015b828111156120bb5782518255916020019190600101906120a0565b5b5090506120c991906120cd565b5090565b6120ef91905b808211156120eb5760008160009055506001016120d3565b5090565b9056fea165627a7a723058202f8573632c8d2f79e805242682a86f975b1b994ef763f8b3574623b4610dda3c0029",
  "source": "pragma solidity ^0.5.0;\n\n/* contract ControlAcceso {\n    address public owner;\n    uint public userCount;\n    User[] users;\n    struct User {\n        address userAddress;\n    }\n\n    constructor() public {\n        owner = msg.sender;\n        userCount = 0;\n        addUser(owner);\n    }\n\n    function addUser(address _userAddress) public {\n        User memory _newUser = User(_userAddress);\n        users.push(_newUser);\n        userCount++;\n    }\n\n    function remove(uint index)  returns(User[] memory) {\n        if (index >= array.length) return;\n\n        for (uint i = index; i<array.length-1; i++){\n            array[i] = array[i+1];\n        }\n        delete array[array.length-1];\n        array.length--;\n        return array;\n    }\n\n    function removeUser(address _userAddress) public {\n\n    }\n} */\n\ncontract ControlAcceso {\n    address public owner;\n    uint public userCount;\n    uint public resourceCount;\n    uint public actualResourceId;\n    address public user;\n    mapping (address => User) public addressToUser;\n    mapping (uint => User) public idToUser;\n    mapping (uint => Resource) public idToResource;\n    mapping (address => uint[]) userResources;\n    mapping (address => Request[]) userRequest;\n    mapping (address => uint[]) allowedResources;\n\n    struct Resource {\n        uint id;\n        string name;\n        string organization;\n        address userAdmin;\n    }\n\n    struct User {\n        address user;\n        uint id;\n        bool admin;\n        uint adminResources;\n        uint countRequests;\n        uint allowedResources;\n    }\n\n    struct Request {\n        address user;\n        uint resource;\n    }\n\n    event CreateResource(\n        uint id,\n        string name,\n        string organization,\n        address userAdmin\n    );\n\n    event RemoveResource(\n        uint id\n    );\n\n    event CreateUser(\n        address user,\n        uint id,\n        bool admin,\n        uint adminResources,\n        uint countRequests,\n        uint allowedResources\n    );\n\n    event RemoveUser(\n        address user,\n        uint id\n    );\n\n    modifier onlyOwner {\n        require(msg.sender == owner, \"Only owner can call this function\");\n        _;\n    }\n\n    modifier onlyAdmin {\n        require(addressToUser[msg.sender].id != 0 && addressToUser[msg.sender].admin == true, \"Only admins can call this function\");\n        _;\n    }\n\n    //mapping(uint => address) public users;\n    constructor() public {\n        owner = msg.sender;\n        userCount = 0;\n        resourceCount = 0;\n        actualResourceId = 0;\n        // userCount ++;\n        user = 0xAf212b1d492E73c6bF1F542A703dAEB877f42e89;\n        addUser(owner, true);\n    }\n\n    function addUser(address _userAddress, bool _admin) public {\n        uint id = addressToUser[_userAddress].id;\n        if (id == 0) {\n            userCount++;\n            id = userCount; \n            addressToUser[_userAddress] = User(_userAddress, id, _admin, 0, 0, 0);\n            idToUser[id] = User(_userAddress, id, _admin, 0, 0, 0);\n            emit CreateUser(_userAddress, id, _admin, 0, 0, 0);\n        }\n        // users[id] = _userAddress; // Por esto falla el migrate\n    }\n\n    function removeUser(address _userAddress) public {\n        uint id = addressToUser[_userAddress].id;\n        if (id != 0) {\n            userCount--;\n            delete addressToUser[_userAddress];\n            delete idToUser[id];\n            emit RemoveUser(_userAddress, id);\n        }\n        // users[id] = _userAddress; // Por esto falla el migrate\n    }\n\n    function addResource(string memory _name, string memory _organization) public {\n        resourceCount++;\n        actualResourceId++;\n        uint _id = actualResourceId;\n        userResources[msg.sender].push(_id);\n        addressToUser[msg.sender].adminResources++;\n        idToResource[_id] = Resource(_id, _name, _organization, msg.sender);\n        emit CreateResource(_id, _name, _organization, msg.sender);       \n    }\n\n    function removeResource(uint _id) public {\n        if (_id!=0) {\n            resourceCount--;\n            addressToUser[msg.sender].adminResources--;\n            delete idToResource[_id];\n            emit RemoveResource(_id);\n        }      \n    }\n\n    function requestResource(uint _id) public {\n        require(_id != 0);\n        User storage admin = addressToUser[idToResource[_id].userAdmin];\n        idToUser[admin.id].countRequests++;\n        addressToUser[idToResource[_id].userAdmin].countRequests++;\n        userRequest[admin.user].push(Request(msg.sender,_id));\n    }\n\n    function isRequested(uint _id) public view returns (address) {\n        require(msg.sender == idToResource[_id].userAdmin);\n        if(addressToUser[msg.sender].countRequests == 0) {\n            return 0x0000000000000000000000000000000000000000;\n        }\n        else {\n            // Resource memory resource = idToResource[_id];\n            for(uint i = 0; i<addressToUser[msg.sender].countRequests; i++) {\n                if(userRequest[msg.sender][i].resource == _id) {\n                    return userRequest[msg.sender][i].user;\n                }\n            }\n        }\n        return 0x0000000000000000000000000000000000000000;\n    }\n\n    function acceptRequest(address _user, uint _id, bool _accept) public {\n        require(_id != 0);\n        if(_accept) {\n            allowedResources[_user].push(_id);\n            User storage userAllowed = addressToUser[_user];\n            userAllowed.allowedResources++;\n            idToUser[userAllowed.id].allowedResources++;\n        }\n    }\n\n    function haveAccess(uint _id) public view returns (bool) {\n        require(_id != 0);\n        User memory _user = addressToUser[msg.sender];\n        for(uint i=0; i<_user.allowedResources; i++) {\n            if(allowedResources[_user.user][i] == _id) {\n                return true;\n            }\n        }\n        return false;\n    }\n\n    function getCountRequest() public view returns (uint) {\n        return addressToUser[msg.sender].countRequests;\n    }\n\n    function getRequest(uint _id) public view returns (address, uint) {\n        //require(_id < addressToUser[msg.sender].countRequests && _id!=0);\n        return (userRequest[msg.sender][_id].user, userRequest[msg.sender][_id].resource);\n    }\n\n    function getRequestUser(uint _id) public view returns (address)  {\n        require(_id < addressToUser[msg.sender].countRequests && _id!=0);\n        return userRequest[msg.sender][_id].user;\n\n    }\n\n    function getRequestResource(uint _id) public view returns (uint)  {\n        require(_id < addressToUser[msg.sender].countRequests && _id!=0);\n\n        return userRequest[msg.sender][_id].resource;\n    }\n}\n",
  "sourcePath": "/home/yisus/Documentos/IngenieriaInformatica/Cuarto/Segundo Cuatrimestre/Control-Acceso-Blockchain/contracts/ControlAcceso.sol",
  "compiler": {
    "name": "solc",
    "version": "0.5.0+commit.1d4f565a.Emscripten.clang"
  },
  "schemaVersion": "3.0.6",
  "updatedAt": "2019-04-15T09:21:41.979Z",
  "devdoc": {
    "methods": {}
  },
  "userdoc": {
    "methods": {}
  }
}