{
  "contractName": "ControlAcceso",
  "abi": [
    {
      "constant": true,
      "inputs": [],
      "name": "userCount",
      "outputs": [
        {
          "name": "",
          "type": "uint256"
        }
      ],
      "payable": false,
      "stateMutability": "view",
      "type": "function",
      "signature": "0x07973ccf"
    },
    {
      "constant": true,
      "inputs": [],
      "name": "resourceCount",
      "outputs": [
        {
          "name": "",
          "type": "uint256"
        }
      ],
      "payable": false,
      "stateMutability": "view",
      "type": "function",
      "signature": "0x0a3fa24a"
    },
    {
      "constant": true,
      "inputs": [],
      "name": "actualResourceId",
      "outputs": [
        {
          "name": "",
          "type": "uint256"
        }
      ],
      "payable": false,
      "stateMutability": "view",
      "type": "function",
      "signature": "0x1b8d826b"
    },
    {
      "constant": true,
      "inputs": [
        {
          "name": "",
          "type": "uint256"
        }
      ],
      "name": "usersArray",
      "outputs": [
        {
          "name": "",
          "type": "address"
        }
      ],
      "payable": false,
      "stateMutability": "view",
      "type": "function",
      "signature": "0x2fae35c0"
    },
    {
      "constant": true,
      "inputs": [],
      "name": "owner",
      "outputs": [
        {
          "name": "",
          "type": "address"
        }
      ],
      "payable": false,
      "stateMutability": "view",
      "type": "function",
      "signature": "0x8da5cb5b"
    },
    {
      "constant": true,
      "inputs": [
        {
          "name": "",
          "type": "uint256"
        }
      ],
      "name": "idToResource",
      "outputs": [
        {
          "name": "id",
          "type": "uint256"
        },
        {
          "name": "name",
          "type": "string"
        },
        {
          "name": "description",
          "type": "string"
        },
        {
          "name": "creationDate",
          "type": "uint256"
        },
        {
          "name": "creator",
          "type": "address"
        }
      ],
      "payable": false,
      "stateMutability": "view",
      "type": "function",
      "signature": "0x900b6cab"
    },
    {
      "constant": true,
      "inputs": [
        {
          "name": "",
          "type": "address"
        },
        {
          "name": "",
          "type": "uint256"
        }
      ],
      "name": "addressToRequests",
      "outputs": [
        {
          "name": "user",
          "type": "address"
        },
        {
          "name": "resource",
          "type": "uint256"
        }
      ],
      "payable": false,
      "stateMutability": "view",
      "type": "function",
      "signature": "0xa1ea016d"
    },
    {
      "constant": true,
      "inputs": [
        {
          "name": "",
          "type": "uint256"
        }
      ],
      "name": "resourcesArray",
      "outputs": [
        {
          "name": "",
          "type": "uint256"
        }
      ],
      "payable": false,
      "stateMutability": "view",
      "type": "function",
      "signature": "0xa8d1b244"
    },
    {
      "constant": true,
      "inputs": [
        {
          "name": "",
          "type": "address"
        }
      ],
      "name": "addressToUser",
      "outputs": [
        {
          "name": "userAddress",
          "type": "address"
        },
        {
          "name": "username",
          "type": "string"
        },
        {
          "name": "id",
          "type": "uint256"
        },
        {
          "name": "admin",
          "type": "bool"
        },
        {
          "name": "resourcesCount",
          "type": "uint256"
        },
        {
          "name": "requestsCount",
          "type": "uint256"
        }
      ],
      "payable": false,
      "stateMutability": "view",
      "type": "function",
      "signature": "0xedf53886"
    },
    {
      "constant": true,
      "inputs": [
        {
          "name": "",
          "type": "address"
        },
        {
          "name": "",
          "type": "uint256"
        }
      ],
      "name": "addressToResourcesId",
      "outputs": [
        {
          "name": "",
          "type": "uint256"
        }
      ],
      "payable": false,
      "stateMutability": "view",
      "type": "function",
      "signature": "0xf7ed9555"
    },
    {
      "inputs": [],
      "payable": false,
      "stateMutability": "nonpayable",
      "type": "constructor",
      "signature": "constructor"
    },
    {
      "anonymous": false,
      "inputs": [
        {
          "indexed": false,
          "name": "userAddress",
          "type": "address"
        },
        {
          "indexed": false,
          "name": "username",
          "type": "string"
        },
        {
          "indexed": false,
          "name": "id",
          "type": "uint256"
        },
        {
          "indexed": false,
          "name": "admin",
          "type": "bool"
        }
      ],
      "name": "CreateUser",
      "type": "event",
      "signature": "0x0b6981b3c7224dfb942f6b68c4b81905a7b22334f5f6cfeb5e52cc9c0ddc36b1"
    },
    {
      "anonymous": false,
      "inputs": [
        {
          "indexed": false,
          "name": "userAddress",
          "type": "address"
        }
      ],
      "name": "RemoveUser",
      "type": "event",
      "signature": "0x0ad8e54ac59bf2d8a7a1474c1af503b593553cf4fcaaffdef04ab5249f89762b"
    },
    {
      "anonymous": false,
      "inputs": [
        {
          "indexed": false,
          "name": "id",
          "type": "uint256"
        },
        {
          "indexed": false,
          "name": "name",
          "type": "string"
        },
        {
          "indexed": false,
          "name": "description",
          "type": "string"
        },
        {
          "indexed": false,
          "name": "creator",
          "type": "address"
        }
      ],
      "name": "CreateResource",
      "type": "event",
      "signature": "0x03a31eda3264898c9097bb2d2f45e34d3ff307b9e040196195632ba7a7bf4e38"
    },
    {
      "anonymous": false,
      "inputs": [
        {
          "indexed": false,
          "name": "id",
          "type": "uint256"
        }
      ],
      "name": "RemoveResource",
      "type": "event",
      "signature": "0xdd673f98c4d2d29b73520888ecb759f89c4544d4a9e1cc2393d546ebe32fd63c"
    },
    {
      "anonymous": false,
      "inputs": [
        {
          "indexed": false,
          "name": "user",
          "type": "address"
        },
        {
          "indexed": false,
          "name": "resource",
          "type": "uint256"
        }
      ],
      "name": "RequestResource",
      "type": "event",
      "signature": "0x66e8c0df3145c948ad0c06436f991a8ef60cc98447f65e3a9b67e07e0a498ca5"
    },
    {
      "anonymous": false,
      "inputs": [
        {
          "indexed": false,
          "name": "user",
          "type": "address"
        },
        {
          "indexed": false,
          "name": "resource",
          "type": "uint256"
        },
        {
          "indexed": false,
          "name": "allowed",
          "type": "bool"
        }
      ],
      "name": "AcceptRequest",
      "type": "event",
      "signature": "0xa049d0e3b89efa3e2345b773ef902d12ce74388cda692b45484783199da64348"
    },
    {
      "constant": false,
      "inputs": [
        {
          "name": "_userAddress",
          "type": "address"
        },
        {
          "name": "_username",
          "type": "string"
        },
        {
          "name": "_admin",
          "type": "bool"
        }
      ],
      "name": "addUser",
      "outputs": [],
      "payable": false,
      "stateMutability": "nonpayable",
      "type": "function",
      "signature": "0x06dde62d"
    },
    {
      "constant": true,
      "inputs": [
        {
          "name": "index",
          "type": "uint256"
        }
      ],
      "name": "getUser",
      "outputs": [
        {
          "name": "",
          "type": "string"
        }
      ],
      "payable": false,
      "stateMutability": "view",
      "type": "function",
      "signature": "0xb0467deb"
    },
    {
      "constant": true,
      "inputs": [
        {
          "name": "_username",
          "type": "string"
        }
      ],
      "name": "checkUsername",
      "outputs": [
        {
          "name": "",
          "type": "bool"
        }
      ],
      "payable": false,
      "stateMutability": "view",
      "type": "function",
      "signature": "0xa5d87c40"
    },
    {
      "constant": false,
      "inputs": [
        {
          "name": "_userAddress",
          "type": "address"
        }
      ],
      "name": "removeUser",
      "outputs": [],
      "payable": false,
      "stateMutability": "nonpayable",
      "type": "function",
      "signature": "0x98575188"
    },
    {
      "constant": false,
      "inputs": [
        {
          "name": "_name",
          "type": "string"
        },
        {
          "name": "_description",
          "type": "string"
        }
      ],
      "name": "addResource",
      "outputs": [],
      "payable": false,
      "stateMutability": "nonpayable",
      "type": "function",
      "signature": "0x8d225030"
    },
    {
      "constant": false,
      "inputs": [
        {
          "name": "_id",
          "type": "uint256"
        }
      ],
      "name": "removeResource",
      "outputs": [],
      "payable": false,
      "stateMutability": "nonpayable",
      "type": "function",
      "signature": "0x01b98339"
    },
    {
      "constant": true,
      "inputs": [
        {
          "name": "index",
          "type": "uint256"
        }
      ],
      "name": "getResource",
      "outputs": [
        {
          "name": "",
          "type": "string"
        }
      ],
      "payable": false,
      "stateMutability": "view",
      "type": "function",
      "signature": "0x1e8fca2d"
    },
    {
      "constant": false,
      "inputs": [
        {
          "name": "_id",
          "type": "uint256"
        }
      ],
      "name": "requestResource",
      "outputs": [],
      "payable": false,
      "stateMutability": "nonpayable",
      "type": "function",
      "signature": "0x11d08676"
    },
    {
      "constant": true,
      "inputs": [
        {
          "name": "_id",
          "type": "uint256"
        }
      ],
      "name": "isRequested",
      "outputs": [
        {
          "name": "",
          "type": "address"
        }
      ],
      "payable": false,
      "stateMutability": "view",
      "type": "function",
      "signature": "0x155fec72"
    },
    {
      "constant": false,
      "inputs": [
        {
          "name": "_user",
          "type": "address"
        },
        {
          "name": "_id",
          "type": "uint256"
        },
        {
          "name": "_accept",
          "type": "bool"
        }
      ],
      "name": "acceptRequest",
      "outputs": [],
      "payable": false,
      "stateMutability": "nonpayable",
      "type": "function",
      "signature": "0x6e1346ed"
    },
    {
      "constant": true,
      "inputs": [],
      "name": "getCountRequest",
      "outputs": [
        {
          "name": "",
          "type": "uint256"
        }
      ],
      "payable": false,
      "stateMutability": "view",
      "type": "function",
      "signature": "0xc510d96d"
    },
    {
      "constant": true,
      "inputs": [
        {
          "name": "_id",
          "type": "uint256"
        }
      ],
      "name": "getRequest",
      "outputs": [
        {
          "name": "",
          "type": "string"
        },
        {
          "name": "",
          "type": "uint256"
        },
        {
          "name": "",
          "type": "address"
        }
      ],
      "payable": false,
      "stateMutability": "view",
      "type": "function",
      "signature": "0xc58343ef"
    },
    {
      "constant": true,
      "inputs": [],
      "name": "allowedCount",
      "outputs": [
        {
          "name": "",
          "type": "uint256"
        }
      ],
      "payable": false,
      "stateMutability": "view",
      "type": "function",
      "signature": "0x89d34e4b"
    },
    {
      "constant": true,
      "inputs": [
        {
          "name": "_id",
          "type": "uint256"
        }
      ],
      "name": "haveAccess",
      "outputs": [
        {
          "name": "",
          "type": "bool"
        }
      ],
      "payable": false,
      "stateMutability": "view",
      "type": "function",
      "signature": "0x2212b16e"
    }
  ],
  "bytecode": "0x60806040526000600160006101000a81548173ffffffffffffffffffffffffffffffffffffffff021916908373ffffffffffffffffffffffffffffffffffffffff1602179055503480156200005357600080fd5b50336000806101000a81548173ffffffffffffffffffffffffffffffffffffffff021916908373ffffffffffffffffffffffffffffffffffffffff160217905550600060038190555060006004819055506001600281905550620000b6620003f8565b60e0604051908101604052806000809054906101000a900473ffffffffffffffffffffffffffffffffffffffff1673ffffffffffffffffffffffffffffffffffffffff1681526020016040805190810160405280600581526020017f61646d696e00000000000000000000000000000000000000000000000000000081525081526020016002548152602001600115158152602001600081526020016000815260200160006040519080825280602002602001820160405280156200018a5781602001602082028038833980820191505090505b50815250905080600560008060009054906101000a900473ffffffffffffffffffffffffffffffffffffffff1673ffffffffffffffffffffffffffffffffffffffff1673ffffffffffffffffffffffffffffffffffffffff16815260200190815260200160002060008201518160000160006101000a81548173ffffffffffffffffffffffffffffffffffffffff021916908373ffffffffffffffffffffffffffffffffffffffff1602179055506020820151816001019080519060200190620002569291906200044e565b506040820151816002015560608201518160030160006101000a81548160ff0219169083151502179055506080820151816004015560a0820151816005015560c0820151816006019080519060200190620002b3929190620004d5565b5090505060063390806001815401808255809150509060018203906000526020600020016000909192909190916101000a81548173ffffffffffffffffffffffffffffffffffffffff021916908373ffffffffffffffffffffffffffffffffffffffff160217905550507f0b6981b3c7224dfb942f6b68c4b81905a7b22334f5f6cfeb5e52cc9c0ddc36b16000809054906101000a900473ffffffffffffffffffffffffffffffffffffffff166002546001604051808473ffffffffffffffffffffffffffffffffffffffff1673ffffffffffffffffffffffffffffffffffffffff1681526020018060200184815260200183151515158152602001828103825260058152602001807f61646d696e00000000000000000000000000000000000000000000000000000081525060200194505050505060405180910390a1506200054f565b60e060405190810160405280600073ffffffffffffffffffffffffffffffffffffffff16815260200160608152602001600081526020016000151581526020016000815260200160008152602001606081525090565b828054600181600116156101000203166002900490600052602060002090601f016020900481019282601f106200049157805160ff1916838001178555620004c2565b82800160010185558215620004c2579182015b82811115620004c1578251825591602001919060010190620004a4565b5b509050620004d1919062000527565b5090565b82805482825590600052602060002090810192821562000514579160200282015b8281111562000513578251825591602001919060010190620004f6565b5b50905062000523919062000527565b5090565b6200054c91905b80821115620005485760008160009055506001016200052e565b5090565b90565b61332c806200055f6000396000f3fe60806040526004361061013e576000357c0100000000000000000000000000000000000000000000000000000000900463ffffffff16806301b983391461014357806306dde62d1461017e57806307973ccf146102725780630a3fa24a1461029d57806311d08676146102c8578063155fec72146103035780631b8d826b1461037e5780631e8fca2d146103a95780632212b16e1461045d5780632fae35c0146104b05780636e1346ed1461052b57806389d34e4b146105925780638d225030146105bd5780638da5cb5b1461071c578063900b6cab1461077357806398575188146108d4578063a1ea016d14610925578063a5d87c40146109c7578063a8d1b24414610aa7578063b0467deb14610af6578063c510d96d14610baa578063c58343ef14610bd5578063edf5388614610cc3578063f7ed955514610de0575b600080fd5b34801561014f57600080fd5b5061017c6004803603602081101561016657600080fd5b8101908080359060200190929190505050610e4f565b005b34801561018a57600080fd5b50610270600480360360608110156101a157600080fd5b81019080803573ffffffffffffffffffffffffffffffffffffffff169060200190929190803590602001906401000000008111156101de57600080fd5b8201836020820111156101f057600080fd5b8035906020019184600183028401116401000000008311171561021257600080fd5b91908080601f016020809104026020016040519081016040528093929190818152602001838380828437600081840152601f19601f820116905080830192505050505050509192919290803515159060200190929190505050611075565b005b34801561027e57600080fd5b506102876114d3565b6040518082815260200191505060405180910390f35b3480156102a957600080fd5b506102b26114d9565b6040518082815260200191505060405180910390f35b3480156102d457600080fd5b50610301600480360360208110156102eb57600080fd5b81019080803590602001909291905050506114df565b005b34801561030f57600080fd5b5061033c6004803603602081101561032657600080fd5b81019080803590602001909291905050506118d7565b604051808273ffffffffffffffffffffffffffffffffffffffff1673ffffffffffffffffffffffffffffffffffffffff16815260200191505060405180910390f35b34801561038a57600080fd5b50610393611af0565b6040518082815260200191505060405180910390f35b3480156103b557600080fd5b506103e2600480360360208110156103cc57600080fd5b8101908080359060200190929190505050611af6565b6040518080602001828103825283818151815260200191508051906020019080838360005b83811015610422578082015181840152602081019050610407565b50505050905090810190601f16801561044f5780820380516001836020036101000a031916815260200191505b509250505060405180910390f35b34801561046957600080fd5b506104966004803603602081101561048057600080fd5b8101908080359060200190929190505050611be4565b604051808215151515815260200191505060405180910390f35b3480156104bc57600080fd5b506104e9600480360360208110156104d357600080fd5b8101908080359060200190929190505050611ea5565b604051808273ffffffffffffffffffffffffffffffffffffffff1673ffffffffffffffffffffffffffffffffffffffff16815260200191505060405180910390f35b34801561053757600080fd5b506105906004803603606081101561054e57600080fd5b81019080803573ffffffffffffffffffffffffffffffffffffffff16906020019092919080359060200190929190803515159060200190929190505050611ee3565b005b34801561059e57600080fd5b506105a7611fe2565b6040518082815260200191505060405180910390f35b3480156105c957600080fd5b5061071a600480360360408110156105e057600080fd5b81019080803590602001906401000000008111156105fd57600080fd5b82018360208201111561060f57600080fd5b8035906020019184600183028401116401000000008311171561063157600080fd5b91908080601f016020809104026020016040519081016040528093929190818152602001838380828437600081840152601f19601f8201169050808301925050505050505091929192908035906020019064010000000081111561069457600080fd5b8201836020820111156106a657600080fd5b803590602001918460018302840111640100000000831117156106c857600080fd5b91908080601f016020809104026020016040519081016040528093929190818152602001838380828437600081840152601f19601f82011690508083019250505050505050919291929050505061202f565b005b34801561072857600080fd5b50610731612382565b604051808273ffffffffffffffffffffffffffffffffffffffff1673ffffffffffffffffffffffffffffffffffffffff16815260200191505060405180910390f35b34801561077f57600080fd5b506107ac6004803603602081101561079657600080fd5b81019080803590602001909291905050506123a7565b6040518086815260200180602001806020018581526020018473ffffffffffffffffffffffffffffffffffffffff1673ffffffffffffffffffffffffffffffffffffffff168152602001838103835287818151815260200191508051906020019080838360005b8381101561082e578082015181840152602081019050610813565b50505050905090810190601f16801561085b5780820380516001836020036101000a031916815260200191505b50838103825286818151815260200191508051906020019080838360005b83811015610894578082015181840152602081019050610879565b50505050905090810190601f1680156108c15780820380516001836020036101000a031916815260200191505b5097505050505050505060405180910390f35b3480156108e057600080fd5b50610923600480360360208110156108f757600080fd5b81019080803573ffffffffffffffffffffffffffffffffffffffff16906020019092919050505061252d565b005b34801561093157600080fd5b5061097e6004803603604081101561094857600080fd5b81019080803573ffffffffffffffffffffffffffffffffffffffff16906020019092919080359060200190929190505050612859565b604051808373ffffffffffffffffffffffffffffffffffffffff1673ffffffffffffffffffffffffffffffffffffffff1681526020018281526020019250505060405180910390f35b3480156109d357600080fd5b50610a8d600480360360208110156109ea57600080fd5b8101908080359060200190640100000000811115610a0757600080fd5b820183602082011115610a1957600080fd5b80359060200191846001830284011164010000000083111715610a3b57600080fd5b91908080601f016020809104026020016040519081016040528093929190818152602001838380828437600081840152601f19601f8201169050808301925050505050505091929192905050506128b9565b604051808215151515815260200191505060405180910390f35b348015610ab357600080fd5b50610ae060048036036020811015610aca57600080fd5b8101908080359060200190929190505050612a1f565b6040518082815260200191505060405180910390f35b348015610b0257600080fd5b50610b2f60048036036020811015610b1957600080fd5b8101908080359060200190929190505050612a42565b6040518080602001828103825283818151815260200191508051906020019080838360005b83811015610b6f578082015181840152602081019050610b54565b50505050905090810190601f168015610b9c5780820380516001836020036101000a031916815260200191505b509250505060405180910390f35b348015610bb657600080fd5b50610bbf612b7c565b6040518082815260200191505060405180910390f35b348015610be157600080fd5b50610c0e60048036036020811015610bf857600080fd5b8101908080359060200190929190505050612bc6565b60405180806020018481526020018373ffffffffffffffffffffffffffffffffffffffff1673ffffffffffffffffffffffffffffffffffffffff168152602001828103825285818151815260200191508051906020019080838360005b83811015610c86578082015181840152602081019050610c6b565b50505050905090810190601f168015610cb35780820380516001836020036101000a031916815260200191505b5094505050505060405180910390f35b348015610ccf57600080fd5b50610d1260048036036020811015610ce657600080fd5b81019080803573ffffffffffffffffffffffffffffffffffffffff169060200190929190505050612d94565b604051808773ffffffffffffffffffffffffffffffffffffffff1673ffffffffffffffffffffffffffffffffffffffff1681526020018060200186815260200185151515158152602001848152602001838152602001828103825287818151815260200191508051906020019080838360005b83811015610da0578082015181840152602081019050610d85565b50505050905090810190601f168015610dcd5780820380516001836020036101000a031916815260200191505b5097505050505050505060405180910390f35b348015610dec57600080fd5b50610e3960048036036040811015610e0357600080fd5b81019080803573ffffffffffffffffffffffffffffffffffffffff16906020019092919080359060200190929190505050612e95565b6040518082815260200191505060405180910390f35b60008114158015610e6257506004548111155b1515610e6d57600080fd5b600080610e7983612ec5565b80925081935050508115610fb9576000600a600160035403815481101515610e9d57fe5b9060005260206000200154905080600a83815481101515610eba57fe5b9060005260206000200181905550600a600160035403815481101515610edc57fe5b9060005260206000200160009055610ef43385612f24565b8093508194505050600115158315151415610f6457600860003373ffffffffffffffffffffffffffffffffffffffff1673ffffffffffffffffffffffffffffffffffffffff16815260200190815260200160002082815481101515610f5557fe5b90600052602060002001600090555b600560003373ffffffffffffffffffffffffffffffffffffffff1673ffffffffffffffffffffffffffffffffffffffff1681526020019081526020016000206004016000815480929190600190039190505550505b60076000848152602001908152602001600020600080820160009055600182016000610fe591906130d9565b600282016000610ff591906130d9565b60038201600090556004820160006101000a81549073ffffffffffffffffffffffffffffffffffffffff021916905550507fdd673f98c4d2d29b73520888ecb759f89c4544d4a9e1cc2393d546ebe32fd63c836040518082815260200191505060405180910390a160036000815480929190600190039190505550505050565b60011515600560003373ffffffffffffffffffffffffffffffffffffffff1673ffffffffffffffffffffffffffffffffffffffff16815260200190815260200160002060030160009054906101000a900460ff161515141515611166576040517f08c379a00000000000000000000000000000000000000000000000000000000081526004018080602001828103825260228152602001807f4f6e6c792061646d696e732063616e2063616c6c20746869732066756e63746981526020017f6f6e00000000000000000000000000000000000000000000000000000000000081525060400191505060405180910390fd5b61116f826128b9565b15156111e3576040517f08c379a000000000000000000000000000000000000000000000000000000000815260040180806020018281038252601b8152602001807f5468697320757365726e616d6520616c7265616479206578697374000000000081525060200191505060405180910390fd5b6002600081548092919060010191905055506111fd613121565b60e0604051908101604052808573ffffffffffffffffffffffffffffffffffffffff16815260200184815260200160025481526020018315158152602001600081526020016000815260200160006040519080825280602002602001820160405280156112795781602001602082028038833980820191505090505b50815250905080600560008673ffffffffffffffffffffffffffffffffffffffff1673ffffffffffffffffffffffffffffffffffffffff16815260200190815260200160002060008201518160000160006101000a81548173ffffffffffffffffffffffffffffffffffffffff021916908373ffffffffffffffffffffffffffffffffffffffff1602179055506020820151816001019080519060200190611322929190613177565b506040820151816002015560608201518160030160006101000a81548160ff0219169083151502179055506080820151816004015560a0820151816005015560c082015181600601908051906020019061137d9291906131f7565b5090505060068490806001815401808255809150509060018203906000526020600020016000909192909190916101000a81548173ffffffffffffffffffffffffffffffffffffffff021916908373ffffffffffffffffffffffffffffffffffffffff160217905550507f0b6981b3c7224dfb942f6b68c4b81905a7b22334f5f6cfeb5e52cc9c0ddc36b1848460025485604051808573ffffffffffffffffffffffffffffffffffffffff1673ffffffffffffffffffffffffffffffffffffffff1681526020018060200184815260200183151515158152602001828103825285818151815260200191508051906020019080838360005b83811015611490578082015181840152602081019050611475565b50505050905090810190601f1680156114bd5780820380516001836020036101000a031916815260200191505b509550505050505060405180910390a150505050565b60025481565b60035481565b60008111801561150657506000600760008381526020019081526020016000206000015414155b151561151157600080fd5b611519613121565b600560006007600085815260200190815260200160002060040160009054906101000a900473ffffffffffffffffffffffffffffffffffffffff1673ffffffffffffffffffffffffffffffffffffffff1673ffffffffffffffffffffffffffffffffffffffff16815260200190815260200160002060e060405190810160405290816000820160009054906101000a900473ffffffffffffffffffffffffffffffffffffffff1673ffffffffffffffffffffffffffffffffffffffff1673ffffffffffffffffffffffffffffffffffffffff168152602001600182018054600181600116156101000203166002900480601f0160208091040260200160405190810160405280929190818152602001828054600181600116156101000203166002900480156116895780601f1061165e57610100808354040283529160200191611689565b820191906000526020600020905b81548152906001019060200180831161166c57829003601f168201915b50505050508152602001600282015481526020016003820160009054906101000a900460ff1615151515815260200160048201548152602001600582015481526020016006820180548060200260200160405190810160405280929190818152602001828054801561171a57602002820191906000526020600020905b815481526020019060010190808311611706575b505050505081525050905060056000826000015173ffffffffffffffffffffffffffffffffffffffff1673ffffffffffffffffffffffffffffffffffffffff1681526020019081526020016000206005016000815480929190600101919050555060096000826000015173ffffffffffffffffffffffffffffffffffffffff1673ffffffffffffffffffffffffffffffffffffffff16815260200190815260200160002060408051908101604052803373ffffffffffffffffffffffffffffffffffffffff168152602001848152509080600181540180825580915050906001820390600052602060002090600202016000909192909190915060008201518160000160006101000a81548173ffffffffffffffffffffffffffffffffffffffff021916908373ffffffffffffffffffffffffffffffffffffffff160217905550602082015181600101555050507f66e8c0df3145c948ad0c06436f991a8ef60cc98447f65e3a9b67e07e0a498ca53383604051808373ffffffffffffffffffffffffffffffffffffffff1673ffffffffffffffffffffffffffffffffffffffff1681526020018281526020019250505060405180910390a15050565b60006007600083815260200190815260200160002060040160009054906101000a900473ffffffffffffffffffffffffffffffffffffffff1673ffffffffffffffffffffffffffffffffffffffff163373ffffffffffffffffffffffffffffffffffffffff1614151561194957600080fd5b6000600560003373ffffffffffffffffffffffffffffffffffffffff1673ffffffffffffffffffffffffffffffffffffffff16815260200190815260200160002060050154141561199d5760009050611aeb565b60008090505b600560003373ffffffffffffffffffffffffffffffffffffffff1673ffffffffffffffffffffffffffffffffffffffff16815260200190815260200160002060050154811015611ae55782600960003373ffffffffffffffffffffffffffffffffffffffff1673ffffffffffffffffffffffffffffffffffffffff16815260200190815260200160002082815481101515611a3a57fe5b9060005260206000209060020201600101541415611ad857600960003373ffffffffffffffffffffffffffffffffffffffff1673ffffffffffffffffffffffffffffffffffffffff16815260200190815260200160002081815481101515611a9e57fe5b906000526020600020906002020160000160009054906101000a900473ffffffffffffffffffffffffffffffffffffffff16915050611aeb565b80806001019150506119a3565b50600090505b919050565b60045481565b606060008210158015611b0a575060035482105b1515611b1557600080fd5b60076000600a84815481101515611b2857fe5b906000526020600020015481526020019081526020016000206001018054600181600116156101000203166002900480601f016020809104026020016040519081016040528092919081815260200182805460018160011615610100020316600290048015611bd85780601f10611bad57610100808354040283529160200191611bd8565b820191906000526020600020905b815481529060010190602001808311611bbb57829003601f168201915b50505050509050919050565b6000808214151515611bf557600080fd5b611bfd613121565b600560003373ffffffffffffffffffffffffffffffffffffffff1673ffffffffffffffffffffffffffffffffffffffff16815260200190815260200160002060e060405190810160405290816000820160009054906101000a900473ffffffffffffffffffffffffffffffffffffffff1673ffffffffffffffffffffffffffffffffffffffff1673ffffffffffffffffffffffffffffffffffffffff168152602001600182018054600181600116156101000203166002900480601f016020809104026020016040519081016040528092919081815260200182805460018160011615610100020316600290048015611d375780601f10611d0c57610100808354040283529160200191611d37565b820191906000526020600020905b815481529060010190602001808311611d1a57829003601f168201915b50505050508152602001600282015481526020016003820160009054906101000a900460ff16151515158152602001600482015481526020016005820154815260200160068201805480602002602001604051908101604052809291908181526020018280548015611dc857602002820191906000526020600020905b815481526020019060010190808311611db4575b50505050508152505090506007600084815260200190815260200160002060040160009054906101000a900473ffffffffffffffffffffffffffffffffffffffff1673ffffffffffffffffffffffffffffffffffffffff16816000015173ffffffffffffffffffffffffffffffffffffffff161415611e4b576001915050611ea0565b60008090505b8160c0015151811015611e9957838260c0015182815181101515611e7157fe5b906020019060200201511415611e8c57600192505050611ea0565b8080600101915050611e51565b5060009150505b919050565b600681815481101515611eb457fe5b906000526020600020016000915054906101000a900473ffffffffffffffffffffffffffffffffffffffff1681565b60008214151515611ef357600080fd5b8015611fdd57600560008473ffffffffffffffffffffffffffffffffffffffff1673ffffffffffffffffffffffffffffffffffffffff1681526020019081526020016000206006018290806001815401808255809150509060018203906000526020600020016000909192909190915055507fa049d0e3b89efa3e2345b773ef902d12ce74388cda692b45484783199da64348838383604051808473ffffffffffffffffffffffffffffffffffffffff1673ffffffffffffffffffffffffffffffffffffffff16815260200183815260200182151515158152602001935050505060405180910390a15b505050565b6000600560003373ffffffffffffffffffffffffffffffffffffffff1673ffffffffffffffffffffffffffffffffffffffff16815260200190815260200160002060060180549050905090565b60036000815480929190600101919050555060046000815480929190600101919050555061205b613244565b60a06040519081016040528060045481526020018481526020018381526020014281526020013373ffffffffffffffffffffffffffffffffffffffff168152509050806007600060045481526020019081526020016000206000820151816000015560208201518160010190805190602001906120d9929190613177565b5060408201518160020190805190602001906120f6929190613177565b506060820151816003015560808201518160040160006101000a81548173ffffffffffffffffffffffffffffffffffffffff021916908373ffffffffffffffffffffffffffffffffffffffff160217905550905050600560003373ffffffffffffffffffffffffffffffffffffffff1673ffffffffffffffffffffffffffffffffffffffff16815260200190815260200160002060040160008154809291906001019190505550600860003373ffffffffffffffffffffffffffffffffffffffff1673ffffffffffffffffffffffffffffffffffffffff1681526020019081526020016000206004549080600181540180825580915050906001820390600052602060002001600090919290919091505550600a60045490806001815401808255809150509060018203906000526020600020016000909192909190915055507f03a31eda3264898c9097bb2d2f45e34d3ff307b9e040196195632ba7a7bf4e386004548484336040518085815260200180602001806020018473ffffffffffffffffffffffffffffffffffffffff1673ffffffffffffffffffffffffffffffffffffffff168152602001838103835286818151815260200191508051906020019080838360005b838110156122d95780820151818401526020810190506122be565b50505050905090810190601f1680156123065780820380516001836020036101000a031916815260200191505b50838103825285818151815260200191508051906020019080838360005b8381101561233f578082015181840152602081019050612324565b50505050905090810190601f16801561236c5780820380516001836020036101000a031916815260200191505b50965050505050505060405180910390a1505050565b6000809054906101000a900473ffffffffffffffffffffffffffffffffffffffff1681565b6007602052806000526040600020600091509050806000015490806001018054600181600116156101000203166002900480601f0160208091040260200160405190810160405280929190818152602001828054600181600116156101000203166002900480156124595780601f1061242e57610100808354040283529160200191612459565b820191906000526020600020905b81548152906001019060200180831161243c57829003601f168201915b505050505090806002018054600181600116156101000203166002900480601f0160208091040260200160405190810160405280929190818152602001828054600181600116156101000203166002900480156124f75780601f106124cc576101008083540402835291602001916124f7565b820191906000526020600020905b8154815290600101906020018083116124da57829003601f168201915b5050505050908060030154908060040160009054906101000a900473ffffffffffffffffffffffffffffffffffffffff16905085565b600160009054906101000a900473ffffffffffffffffffffffffffffffffffffffff1673ffffffffffffffffffffffffffffffffffffffff16600560008373ffffffffffffffffffffffffffffffffffffffff1673ffffffffffffffffffffffffffffffffffffffff16815260200190815260200160002060000160009054906101000a900473ffffffffffffffffffffffffffffffffffffffff1673ffffffffffffffffffffffffffffffffffffffff16141515612856576000806125f283613002565b80925081935050508115612853576000600660016002540381548110151561261657fe5b9060005260206000200160009054906101000a900473ffffffffffffffffffffffffffffffffffffffff16905060018201600560008373ffffffffffffffffffffffffffffffffffffffff1673ffffffffffffffffffffffffffffffffffffffff168152602001908152602001600020600201819055508060068381548110151561269d57fe5b9060005260206000200160006101000a81548173ffffffffffffffffffffffffffffffffffffffff021916908373ffffffffffffffffffffffffffffffffffffffff160217905550600560008573ffffffffffffffffffffffffffffffffffffffff1673ffffffffffffffffffffffffffffffffffffffff168152602001908152602001600020600080820160006101000a81549073ffffffffffffffffffffffffffffffffffffffff021916905560018201600061275c91906130d9565b60028201600090556003820160006101000a81549060ff021916905560048201600090556005820160009055600682016000612798919061328a565b505060066001600254038154811015156127ae57fe5b9060005260206000200160006101000a81549073ffffffffffffffffffffffffffffffffffffffff02191690557f0ad8e54ac59bf2d8a7a1474c1af503b593553cf4fcaaffdef04ab5249f89762b84604051808273ffffffffffffffffffffffffffffffffffffffff1673ffffffffffffffffffffffffffffffffffffffff16815260200191505060405180910390a160026000815480929190600190039190505550505b50505b50565b60096020528160005260406000208181548110151561287457fe5b9060005260206000209060020201600091509150508060000160009054906101000a900473ffffffffffffffffffffffffffffffffffffffff16908060010154905082565b600080600090505b600254811015612a14576060600560006006848154811015156128e057fe5b9060005260206000200160009054906101000a900473ffffffffffffffffffffffffffffffffffffffff1673ffffffffffffffffffffffffffffffffffffffff1673ffffffffffffffffffffffffffffffffffffffff1681526020019081526020016000206001018054600181600116156101000203166002900480601f0160208091040260200160405190810160405280929190818152602001828054600181600116156101000203166002900480156129dc5780601f106129b1576101008083540402835291602001916129dc565b820191906000526020600020905b8154815290600101906020018083116129bf57829003601f168201915b505050505090506129ec816130ad565b6129f5856130ad565b1415612a0657600092505050612a1a565b5080806001019150506128c1565b50600190505b919050565b600a81815481101515612a2e57fe5b906000526020600020016000915090505481565b606060008210158015612a56575060025482105b1515612a6157600080fd5b60056000600684815481101515612a7457fe5b9060005260206000200160009054906101000a900473ffffffffffffffffffffffffffffffffffffffff1673ffffffffffffffffffffffffffffffffffffffff1673ffffffffffffffffffffffffffffffffffffffff1681526020019081526020016000206001018054600181600116156101000203166002900480601f016020809104026020016040519081016040528092919081815260200182805460018160011615610100020316600290048015612b705780601f10612b4557610100808354040283529160200191612b70565b820191906000526020600020905b815481529060010190602001808311612b5357829003601f168201915b50505050509050919050565b6000600560003373ffffffffffffffffffffffffffffffffffffffff1673ffffffffffffffffffffffffffffffffffffffff16815260200190815260200160002060050154905090565b6060600080612bd36132ab565b600960003373ffffffffffffffffffffffffffffffffffffffff1673ffffffffffffffffffffffffffffffffffffffff16815260200190815260200160002085815481101515612c1f57fe5b90600052602060002090600202016040805190810160405290816000820160009054906101000a900473ffffffffffffffffffffffffffffffffffffffff1673ffffffffffffffffffffffffffffffffffffffff1673ffffffffffffffffffffffffffffffffffffffff168152602001600182015481525050905060056000826000015173ffffffffffffffffffffffffffffffffffffffff1673ffffffffffffffffffffffffffffffffffffffff16815260200190815260200160002060010181602001518260000151828054600181600116156101000203166002900480601f016020809104026020016040519081016040528092919081815260200182805460018160011615610100020316600290048015612d7f5780601f10612d5457610100808354040283529160200191612d7f565b820191906000526020600020905b815481529060010190602001808311612d6257829003601f168201915b50505050509250935093509350509193909250565b60056020528060005260406000206000915090508060000160009054906101000a900473ffffffffffffffffffffffffffffffffffffffff1690806001018054600181600116156101000203166002900480601f016020809104026020016040519081016040528092919081815260200182805460018160011615610100020316600290048015612e665780601f10612e3b57610100808354040283529160200191612e66565b820191906000526020600020905b815481529060010190602001808311612e4957829003601f168201915b5050505050908060020154908060030160009054906101000a900460ff16908060040154908060050154905086565b600860205281600052604060002081815481101515612eb057fe5b90600052602060002001600091509150505481565b60008060008090505b600354811015612f1357600a81815481101515612ee757fe5b9060005260206000200154841415612f06576001819250925050612f1f565b8080600101915050612ece565b50600080809050915091505b915091565b60008060008090505b600560008673ffffffffffffffffffffffffffffffffffffffff1673ffffffffffffffffffffffffffffffffffffffff16815260200190815260200160002060040154811015612fef57600860008673ffffffffffffffffffffffffffffffffffffffff1673ffffffffffffffffffffffffffffffffffffffff16815260200190815260200160002081815481101515612fc357fe5b9060005260206000200154841415612fe2576001819250925050612ffb565b8080600101915050612f2d565b50600080809050915091505b9250929050565b60008060008090505b60025481101561309c5760068181548110151561302457fe5b9060005260206000200160009054906101000a900473ffffffffffffffffffffffffffffffffffffffff1673ffffffffffffffffffffffffffffffffffffffff168473ffffffffffffffffffffffffffffffffffffffff16141561308f5760018192509250506130a8565b808060010191505061300b565b50600080809050915091505b915091565b600060608290506000815114156130cb5760006001029150506130d4565b60208301519150505b919050565b50805460018160011615610100020316600290046000825580601f106130ff575061311e565b601f01602090049060005260206000209081019061311d91906132db565b5b50565b60e060405190810160405280600073ffffffffffffffffffffffffffffffffffffffff16815260200160608152602001600081526020016000151581526020016000815260200160008152602001606081525090565b828054600181600116156101000203166002900490600052602060002090601f016020900481019282601f106131b857805160ff19168380011785556131e6565b828001600101855582156131e6579182015b828111156131e55782518255916020019190600101906131ca565b5b5090506131f391906132db565b5090565b828054828255906000526020600020908101928215613233579160200282015b82811115613232578251825591602001919060010190613217565b5b50905061324091906132db565b5090565b60a06040519081016040528060008152602001606081526020016060815260200160008152602001600073ffffffffffffffffffffffffffffffffffffffff1681525090565b50805460008255906000526020600020908101906132a891906132db565b50565b6040805190810160405280600073ffffffffffffffffffffffffffffffffffffffff168152602001600081525090565b6132fd91905b808211156132f95760008160009055506001016132e1565b5090565b9056fea165627a7a723058200ab7cb67d523e3e79b860a8bef1b4058248a3a4c353209f9baeaab8da282cdf00029",
  "source": "pragma solidity ^0.5.0;\n\ncontract ControlAcceso {\n    address public owner;\n    address nullAddress = 0x0000000000000000000000000000000000000000;\n    uint public userCount;\n    uint public resourceCount;\n    uint public actualResourceId;\n    mapping(address => User) public addressToUser;\n    // mapping(uint => address) public idToUserAddress;\n    address[] public usersArray;\n\n    mapping(uint => Resource) public idToResource;\n    mapping(address => uint[]) public addressToResourcesId;\n    mapping(address => Request[]) public addressToRequests;\n    uint[] public resourcesArray;\n    // User[] users;\n\n    /*\n\n     */\n    struct User {\n        address userAddress;\n        string username;\n        uint id;\n        bool admin;\n        uint resourcesCount;\n        uint requestsCount;\n        uint[] allowedResources;\n\n    }\n\n    /*\n        id: Identificador del recurso.\n        name: Nombre del recurso.\n        description: Descripcin del recurso.\n        creationDate: Timestamp que indica la fecha de creacin del recurso.\n        creator: Address del creador del recurso.\n     */\n    struct Resource {\n        uint id;\n        string name;\n        string description;\n        uint creationDate;\n        address creator;\n    }\n\n    /*\n        Esta estructura representa una peticin de un recurso.\n        El usuario con address user solicita acceso al recurso\n        con id resource.\n     */\n    struct Request {\n        address user;\n        uint resource;\n    }\n\n    constructor() public {\n        owner = msg.sender;\n        resourceCount = 0;\n        actualResourceId = 0;\n        userCount = 1;\n        User memory _newUser = User(owner, \"admin\", userCount, true, 0, 0, new uint[](0));\n        addressToUser[owner] = _newUser;\n        // idToUserAddress[userCount] = owner;\n        usersArray.push(msg.sender);\n        emit CreateUser(owner, \"admin\", userCount, true);\n    }\n\n    modifier onlyOwner {\n        require(msg.sender == owner, \"Only owner can call this function\");\n        _;\n    }\n\n    modifier onlyAdmin {\n        // require(addressToUser[msg.sender].userAddress != nullAddress && addressToUser[msg.sender].admin == true, \"Only admins can call this function\");\n        require(addressToUser[msg.sender].admin == true, \"Only admins can call this function\");\n        _;\n    }\n\n    event CreateUser(\n        address userAddress,\n        string username,\n        uint id,\n        bool admin\n    );\n\n    event RemoveUser(\n        address userAddress\n    );\n\n    event CreateResource(\n        uint id,\n        string name,\n        string description,\n        address creator\n    );\n\n    event RemoveResource(\n        uint id\n    );\n\n    event RequestResource(\n        address user,\n        uint resource\n    );\n\n    event AcceptRequest(\n        address user,\n        uint resource,\n        bool allowed\n    );\n\n    function addUser(address _userAddress, string memory _username, bool _admin) public onlyAdmin {\n        require(checkUsername(_username), \"This username already exist\");\n        userCount++;\n        User memory _newUser = User(_userAddress, _username, userCount,_admin, 0, 0, new uint[](0));\n        addressToUser[_userAddress] = _newUser;\n        // idToUserAddress[userCount] = _userAddress;\n        usersArray.push(_userAddress);\n        emit CreateUser(_userAddress, _username, userCount, _admin);\n    }\n\n\n    /* \n        !!! Funcin de testeo, ELIMINAR O COMENTAR LUEGO.\n    */\n    function getUser(uint index) public view returns (string memory){\n        require(index >= 0 && index < userCount);\n        return addressToUser[usersArray[index]].username;\n    }\n\n    /*  Funcin que comprueba si un userame est en uso.\n        Disminuye mucho la eficiencia del contrato, pues puede \n        conllevar un gran gasto de gas al crecer el\n        nmero de usuarios. \n    */\n    function checkUsername(string memory _username) public view returns(bool) {\n         for(uint i=0; i<userCount; i++) {\n            // address exu = usersArray[i];\n            string memory aux = addressToUser[usersArray[i]].username;\n            //string memory aux = addressToUser[idToUserAddress[i]].username;\n            if(stringToBytes32(_username) == stringToBytes32(aux)) {\n                return false;\n            }\n        } \n        return true;\n    }\n\n    // Utilidad para pasar pasar de string a bytes32 y poder comparar cadenas.\n    function stringToBytes32(string memory source) private pure returns (bytes32 result) {\n        bytes memory tempEmptyStringTest = bytes(source);\n        if (tempEmptyStringTest.length == 0) {\n            return 0x0;\n        }\n\n        assembly {\n            result := mload(add(source, 32))\n        }\n    }\n\n    /*\n        Busca en el array de usuarios la posicin del usuario con address _user.\n        Devuelve una tupla con un booleano que indica si se ha encontrado y un \n        entero que indica la posicin donde se ha encontrado.\n     */\n    function findUserIndex(address _user) private view returns (bool, uint) {\n        for(uint i=0; i < userCount; i++) {\n            if(_user == usersArray[i]) {\n                return (true,i);\n            }\n        }\n        return (false, 0);\n    }\n\n    function removeUser(address _userAddress) public {\n        // requerir que sea admin o el propio usuario\n        if (addressToUser[_userAddress].userAddress != nullAddress) {\n            bool finded;\n            uint index;\n            (finded, index) = findUserIndex(_userAddress);\n\n            if(finded) {\n                address lastUser = usersArray[userCount-1];\n                addressToUser[lastUser].id = index+1; // puede que sobre\n                usersArray[index] = lastUser;\n                delete addressToUser[_userAddress];\n                delete usersArray[userCount-1];\n                emit RemoveUser(_userAddress);\n                userCount--;\n            }\n            /* uint _id = addressToUser[_userAddress].id;\n            delete addressToUser[_userAddress];\n            \n            \n            // address lastUser = idToUserAddress[userCount];\n            address lastUser = usersArray[userCount-1];\n            addressToUser[lastUser].id = _id;\n            // idToUserAddress[_id] = lastUser;\n            usersArray[_id-1] = lastUser;\n            //delete idToUserAddress[userCount];\n            delete usersArray[userCount-1];\n            emit RemoveUser(_userAddress);\n            userCount--; */\n        }\n    }\n\n    function addResource(string memory _name, string memory _description) public {\n        // requerir que el que aada un recurso sea un usuario registrado\n        resourceCount++;\n        actualResourceId++;\n        Resource memory _newResource = Resource(actualResourceId, _name, _description, now, msg.sender);\n        idToResource[actualResourceId] = _newResource;\n\n        addressToUser[msg.sender].resourcesCount++;\n        addressToResourcesId[msg.sender].push(actualResourceId);\n        resourcesArray.push(actualResourceId);\n\n        \n\n        emit CreateResource(actualResourceId, _name, _description, msg.sender);\n    }\n\n    /*\n        Busca en el array de recursos del usuario _user la posicin del recurso \n        con identificador _id.\n        Devuelve una tupla con un booleano que indica si se ha encontrado y un \n        entero que indica la posicin donde se ha encontrado.\n     */\n    function findUserResourceIndex(address _user, uint _id) private view returns (bool, uint) {\n        for(uint i=0; i < addressToUser[_user].resourcesCount; i++) {\n            if(_id == addressToResourcesId[_user][i]) {\n                return (true,i);\n            }\n        }\n        return (false, 0);\n    }\n\n    function findResourceIndex(uint _id) private view returns (bool, uint) {\n        for(uint i=0; i < resourceCount; i++) {\n            if(_id == resourcesArray[i]) {\n                return (true,i);\n            }\n        }\n        return (false, 0);\n    }\n\n\n\n    function removeResource(uint _id) public {\n        require (_id!=0 && _id <= actualResourceId);\n            bool finded;\n            uint index;\n            (finded, index) = findResourceIndex(_id);\n            if(finded) {\n                uint lastResource = resourcesArray[resourceCount-1];\n                resourcesArray[index] = lastResource;\n                delete resourcesArray[resourceCount-1];\n                (finded, index) = findUserResourceIndex(msg.sender, _id);\n\n                if(finded == true) {\n                    delete addressToResourcesId[msg.sender][index];\n                }\n                addressToUser[msg.sender].resourcesCount--;\n\n                \n                \n            } \n            delete idToResource[_id];\n                emit RemoveResource(_id);\n                resourceCount--;\n\n    }\n    /* \n        !!! Funcin de testeo, ELIMINAR O COMENTAR LUEGO.\n    */\n    function getResource(uint index) public view returns (string memory){\n        require(index >= 0 && index < resourceCount);\n        return idToResource[resourcesArray[index]].name;\n    }\n\n    function requestResource(uint _id) public {\n        require(_id > 0 && idToResource[_id].id != 0);\n        User memory admin = addressToUser[idToResource[_id].creator];\n        addressToUser[admin.userAddress].requestsCount++;\n        // idToUser[admin.id].requestsCount++;\n        addressToRequests[admin.userAddress].push(Request(msg.sender,_id));\n        emit RequestResource(msg.sender, _id);\n    }\n\n    function isRequested(uint _id) public view returns (address) {\n        require(msg.sender == idToResource[_id].creator);\n        if(addressToUser[msg.sender].requestsCount == 0) {\n            return 0x0000000000000000000000000000000000000000;\n        }\n        else {\n            // Resource memory resource = idToResource[_id];\n            for(uint i = 0; i<addressToUser[msg.sender].requestsCount; i++) {\n                if(addressToRequests[msg.sender][i].resource == _id) {\n                    return addressToRequests[msg.sender][i].user;\n                }\n            }\n        }\n        return 0x0000000000000000000000000000000000000000;\n    }\n\n    /*\n        Si _accept = true, permite el acceso al usuario con\n        address _user el acceso al recurso _id.\n    */\n    function acceptRequest(address _user, uint _id, bool _accept) public {\n        require(_id != 0);\n        if(_accept) {\n            addressToUser[_user].allowedResources.push(_id);\n            emit AcceptRequest(_user, _id, _accept);\n            //User storage userAllowed = addressToUser[_user];\n            //userAllowed.allowedResources++;\n            //idToUser[userAllowed.id].allowedResources++;\n        }\n    }\n\n    /*\n        Devuelve la cantidad de peticiones que se le han hecho al usuario.\n    */\n    function getCountRequest() public view returns (uint) {\n        return addressToUser[msg.sender].requestsCount;\n    }\n\n    function getRequest(uint _id) public view returns (string memory, uint, address) {\n        //require(_id < addressToUser[msg.sender].countRequests && _id!=0);\n        Request memory _req = addressToRequests[msg.sender][_id];\n        return (addressToUser[_req.user].username, _req.resource, _req.user);\n    }\n\n    /*\n        Devuelve la cantidad de recursos a los que el usuario\n        tiene acceso.\n    */\n    function allowedCount() public view returns (uint) {\n        return(addressToUser[msg.sender].allowedResources.length);\n    }\n\n    function haveAccess(uint _id) public view returns (bool) {\n        require(_id != 0);\n        User memory _user = addressToUser[msg.sender];\n\n        if(_user.userAddress == idToResource[_id].creator) return true;\n\n        for(uint i=0; i<_user.allowedResources.length; i++) {\n            if(_user.allowedResources[i] == _id) {\n                return true;\n            }\n        }\n        return false;\n    }\n\n} \n\n/*     function remove(uint index)  returns(User[] memory) {\n        if (index >= array.length) return;\n\n        for (uint i = index; i<array.length-1; i++){\n            array[i] = array[i+1];\n        }\n        delete array[array.length-1];\n        array.length--;\n        return array;\n    } */\n\n/* contract ControlAcceso {\n    address public owner;\n    uint public userCount;\n    uint public resourceCount;\n    uint public actualResourceId;\n    address public user;\n    mapping (address => User) public addressToUser;\n    mapping (uint => User) public idToUser;\n    mapping (uint => Resource) public idToResource;\n    mapping (address => uint[]) userResources;\n    mapping (address => Request[]) userRequest;\n    mapping (address => uint[]) allowedResources;\n\n    struct Resource {\n        uint id;\n        string name;\n        string organization;\n        address userAdmin;\n    }\n\n    struct User {\n        address user;\n        uint id;\n        bool admin;\n        uint adminResources;\n        uint countRequests;\n        uint allowedResources;\n    }\n\n    struct Request {\n        address user;\n        uint resource;\n    }\n\n    event CreateResource(\n        uint id,\n        string name,\n        string organization,\n        address userAdmin\n    );\n\n    event RemoveResource(\n        uint id\n    );\n\n    event CreateUser(\n        address user,\n        uint id,\n        bool admin,\n        uint adminResources,\n        uint countRequests,\n        uint allowedResources\n    );\n\n    event RemoveUser(\n        address user,\n        uint id\n    );\n\n    modifier onlyOwner {\n        require(msg.sender == owner, \"Only owner can call this function\");\n        _;\n    }\n\n    modifier onlyAdmin {\n        require(addressToUser[msg.sender].id != 0 && addressToUser[msg.sender].admin == true, \"Only admins can call this function\");\n        _;\n    }\n\n    //mapping(uint => address) public users;\n    constructor() public {\n        owner = msg.sender;\n        userCount = 0;\n        resourceCount = 0;\n        actualResourceId = 0;\n        // userCount ++;\n        user = 0xAf212b1d492E73c6bF1F542A703dAEB877f42e89;\n        addUser(owner, true);\n    }\n\n    function addUser(address _userAddress, bool _admin) public {\n        uint id = addressToUser[_userAddress].id;\n        if (id == 0) {\n            userCount++;\n            id = userCount; \n            addressToUser[_userAddress] = User(_userAddress, id, _admin, 0, 0, 0);\n            idToUser[id] = User(_userAddress, id, _admin, 0, 0, 0);\n            emit CreateUser(_userAddress, id, _admin, 0, 0, 0);\n        }\n        // users[id] = _userAddress; // Por esto falla el migrate\n    }\n\n    function removeUser(address _userAddress) public {\n        uint id = addressToUser[_userAddress].id;\n        if (id != 0) {\n            userCount--;\n            delete addressToUser[_userAddress];\n            delete idToUser[id];\n            emit RemoveUser(_userAddress, id);\n        }\n        // users[id] = _userAddress; // Por esto falla el migrate\n    }\n\n    function addResource(string memory _name, string memory _organization) public {\n        resourceCount++;\n        actualResourceId++;\n        uint _id = actualResourceId;\n        userResources[msg.sender].push(_id);\n        addressToUser[msg.sender].adminResources++;\n        idToResource[_id] = Resource(_id, _name, _organization, msg.sender);\n        emit CreateResource(_id, _name, _organization, msg.sender);       \n    }\n\n    function removeResource(uint _id) public {\n        if (_id!=0) {\n            resourceCount--;\n            addressToUser[msg.sender].adminResources--;\n            delete idToResource[_id];\n            emit RemoveResource(_id);\n        }      \n    }\n\n    function requestResource(uint _id) public {\n        require(_id != 0);\n        User storage admin = addressToUser[idToResource[_id].userAdmin];\n        idToUser[admin.id].countRequests++;\n        addressToUser[idToResource[_id].userAdmin].countRequests++;\n        userRequest[admin.user].push(Request(msg.sender,_id));\n    }\n\n    function isRequested(uint _id) public view returns (address) {\n        require(msg.sender == idToResource[_id].userAdmin);\n        if(addressToUser[msg.sender].countRequests == 0) {\n            return 0x0000000000000000000000000000000000000000;\n        }\n        else {\n            // Resource memory resource = idToResource[_id];\n            for(uint i = 0; i<addressToUser[msg.sender].countRequests; i++) {\n                if(userRequest[msg.sender][i].resource == _id) {\n                    return userRequest[msg.sender][i].user;\n                }\n            }\n        }\n        return 0x0000000000000000000000000000000000000000;\n    }\n\n    function acceptRequest(address _user, uint _id, bool _accept) public {\n        require(_id != 0);\n        if(_accept) {\n            allowedResources[_user].push(_id);\n            User storage userAllowed = addressToUser[_user];\n            userAllowed.allowedResources++;\n            idToUser[userAllowed.id].allowedResources++;\n        }\n    }\n\n    function haveAccess(uint _id) public view returns (bool) {\n        require(_id != 0);\n        User memory _user = addressToUser[msg.sender];\n        for(uint i=0; i<_user.allowedResources; i++) {\n            if(allowedResources[_user.user][i] == _id) {\n                return true;\n            }\n        }\n        return false;\n    }\n\n    function getCountRequest() public view returns (uint) {\n        return addressToUser[msg.sender].countRequests;\n    }\n\n    function getRequest(uint _id) public view returns (address, uint) {\n        //require(_id < addressToUser[msg.sender].countRequests && _id!=0);\n        return (userRequest[msg.sender][_id].user, userRequest[msg.sender][_id].resource);\n    }\n\n    function getRequestUser(uint _id) public view returns (address)  {\n        require(_id < addressToUser[msg.sender].countRequests && _id!=0);\n        return userRequest[msg.sender][_id].user;\n\n    }\n\n    function getRequestResource(uint _id) public view returns (uint)  {\n        require(_id < addressToUser[msg.sender].countRequests && _id!=0);\n\n        return userRequest[msg.sender][_id].resource;\n    }\n}\n */",
  "sourcePath": "/home/yisus/Documentos/IngenieriaInformatica/Cuarto/Segundo Cuatrimestre/Control-Acceso-Blockchain/contracts/ControlAcceso.sol",
  "compiler": {
    "name": "solc",
    "version": "0.5.0+commit.1d4f565a.Emscripten.clang"
  },
  "schemaVersion": "3.0.6",
  "updatedAt": "2019-05-09T10:29:52.835Z",
  "devdoc": {
    "methods": {}
  },
  "userdoc": {
    "methods": {}
  }
}