{
  "contractName": "ControlAcceso",
  "abi": [
    {
      "constant": true,
      "inputs": [],
      "name": "userCount",
      "outputs": [
        {
          "name": "",
          "type": "uint256"
        }
      ],
      "payable": false,
      "stateMutability": "view",
      "type": "function",
      "signature": "0x07973ccf"
    },
    {
      "constant": true,
      "inputs": [],
      "name": "resourceCount",
      "outputs": [
        {
          "name": "",
          "type": "uint256"
        }
      ],
      "payable": false,
      "stateMutability": "view",
      "type": "function",
      "signature": "0x0a3fa24a"
    },
    {
      "constant": true,
      "inputs": [],
      "name": "user",
      "outputs": [
        {
          "name": "",
          "type": "address"
        }
      ],
      "payable": false,
      "stateMutability": "view",
      "type": "function",
      "signature": "0x4f8632ba"
    },
    {
      "constant": true,
      "inputs": [],
      "name": "owner",
      "outputs": [
        {
          "name": "",
          "type": "address"
        }
      ],
      "payable": false,
      "stateMutability": "view",
      "type": "function",
      "signature": "0x8da5cb5b"
    },
    {
      "constant": true,
      "inputs": [
        {
          "name": "",
          "type": "uint256"
        }
      ],
      "name": "idToUser",
      "outputs": [
        {
          "name": "user",
          "type": "address"
        },
        {
          "name": "id",
          "type": "uint256"
        },
        {
          "name": "admin",
          "type": "bool"
        },
        {
          "name": "adminResources",
          "type": "uint256"
        },
        {
          "name": "countRequests",
          "type": "uint256"
        },
        {
          "name": "allowedResources",
          "type": "uint256"
        }
      ],
      "payable": false,
      "stateMutability": "view",
      "type": "function",
      "signature": "0x8dc22cba"
    },
    {
      "constant": true,
      "inputs": [
        {
          "name": "",
          "type": "uint256"
        }
      ],
      "name": "idToResource",
      "outputs": [
        {
          "name": "id",
          "type": "uint256"
        },
        {
          "name": "name",
          "type": "string"
        },
        {
          "name": "organization",
          "type": "string"
        },
        {
          "name": "userAdmin",
          "type": "address"
        }
      ],
      "payable": false,
      "stateMutability": "view",
      "type": "function",
      "signature": "0x900b6cab"
    },
    {
      "constant": true,
      "inputs": [
        {
          "name": "",
          "type": "address"
        }
      ],
      "name": "addressToUser",
      "outputs": [
        {
          "name": "user",
          "type": "address"
        },
        {
          "name": "id",
          "type": "uint256"
        },
        {
          "name": "admin",
          "type": "bool"
        },
        {
          "name": "adminResources",
          "type": "uint256"
        },
        {
          "name": "countRequests",
          "type": "uint256"
        },
        {
          "name": "allowedResources",
          "type": "uint256"
        }
      ],
      "payable": false,
      "stateMutability": "view",
      "type": "function",
      "signature": "0xedf53886"
    },
    {
      "inputs": [],
      "payable": false,
      "stateMutability": "nonpayable",
      "type": "constructor",
      "signature": "constructor"
    },
    {
      "anonymous": false,
      "inputs": [
        {
          "indexed": false,
          "name": "id",
          "type": "uint256"
        },
        {
          "indexed": false,
          "name": "name",
          "type": "string"
        },
        {
          "indexed": false,
          "name": "organization",
          "type": "string"
        },
        {
          "indexed": false,
          "name": "userAdmin",
          "type": "address"
        }
      ],
      "name": "CreateResource",
      "type": "event",
      "signature": "0x03a31eda3264898c9097bb2d2f45e34d3ff307b9e040196195632ba7a7bf4e38"
    },
    {
      "anonymous": false,
      "inputs": [
        {
          "indexed": false,
          "name": "id",
          "type": "uint256"
        }
      ],
      "name": "RemoveResource",
      "type": "event",
      "signature": "0xdd673f98c4d2d29b73520888ecb759f89c4544d4a9e1cc2393d546ebe32fd63c"
    },
    {
      "anonymous": false,
      "inputs": [
        {
          "indexed": false,
          "name": "user",
          "type": "address"
        },
        {
          "indexed": false,
          "name": "id",
          "type": "uint256"
        },
        {
          "indexed": false,
          "name": "admin",
          "type": "bool"
        },
        {
          "indexed": false,
          "name": "adminResources",
          "type": "uint256"
        },
        {
          "indexed": false,
          "name": "countRequests",
          "type": "uint256"
        },
        {
          "indexed": false,
          "name": "allowedResources",
          "type": "uint256"
        }
      ],
      "name": "CreateUser",
      "type": "event",
      "signature": "0xc1c4680a69da395b5ddc6f4a49b2f52c0743091886f585cdf7f6dff7b07f3191"
    },
    {
      "anonymous": false,
      "inputs": [
        {
          "indexed": false,
          "name": "user",
          "type": "address"
        },
        {
          "indexed": false,
          "name": "id",
          "type": "uint256"
        }
      ],
      "name": "RemoveUser",
      "type": "event",
      "signature": "0xf4875fe9528f80a85b09c0ddc2e3fb332b4670d0190065c1495a1ba58af8206c"
    },
    {
      "constant": false,
      "inputs": [
        {
          "name": "_userAddress",
          "type": "address"
        },
        {
          "name": "_admin",
          "type": "bool"
        }
      ],
      "name": "addUser",
      "outputs": [],
      "payable": false,
      "stateMutability": "nonpayable",
      "type": "function",
      "signature": "0xab2b3a80"
    },
    {
      "constant": false,
      "inputs": [
        {
          "name": "_userAddress",
          "type": "address"
        }
      ],
      "name": "removeUser",
      "outputs": [],
      "payable": false,
      "stateMutability": "nonpayable",
      "type": "function",
      "signature": "0x98575188"
    },
    {
      "constant": false,
      "inputs": [
        {
          "name": "_name",
          "type": "string"
        },
        {
          "name": "_organization",
          "type": "string"
        }
      ],
      "name": "addResource",
      "outputs": [],
      "payable": false,
      "stateMutability": "nonpayable",
      "type": "function",
      "signature": "0x8d225030"
    },
    {
      "constant": false,
      "inputs": [
        {
          "name": "_id",
          "type": "uint256"
        }
      ],
      "name": "removeResource",
      "outputs": [],
      "payable": false,
      "stateMutability": "nonpayable",
      "type": "function",
      "signature": "0x01b98339"
    },
    {
      "constant": false,
      "inputs": [
        {
          "name": "_id",
          "type": "uint256"
        }
      ],
      "name": "requestResource",
      "outputs": [],
      "payable": false,
      "stateMutability": "nonpayable",
      "type": "function",
      "signature": "0x11d08676"
    },
    {
      "constant": true,
      "inputs": [
        {
          "name": "_id",
          "type": "uint256"
        }
      ],
      "name": "isRequested",
      "outputs": [
        {
          "name": "",
          "type": "address"
        }
      ],
      "payable": false,
      "stateMutability": "view",
      "type": "function",
      "signature": "0x155fec72"
    },
    {
      "constant": false,
      "inputs": [
        {
          "name": "_user",
          "type": "address"
        },
        {
          "name": "_id",
          "type": "uint256"
        },
        {
          "name": "_accept",
          "type": "bool"
        }
      ],
      "name": "acceptRequest",
      "outputs": [],
      "payable": false,
      "stateMutability": "nonpayable",
      "type": "function",
      "signature": "0x6e1346ed"
    },
    {
      "constant": true,
      "inputs": [
        {
          "name": "_id",
          "type": "uint256"
        }
      ],
      "name": "haveAccess",
      "outputs": [
        {
          "name": "",
          "type": "bool"
        }
      ],
      "payable": false,
      "stateMutability": "view",
      "type": "function",
      "signature": "0x2212b16e"
    },
    {
      "constant": true,
      "inputs": [],
      "name": "getCountRequest",
      "outputs": [
        {
          "name": "",
          "type": "uint256"
        }
      ],
      "payable": false,
      "stateMutability": "view",
      "type": "function",
      "signature": "0xc510d96d"
    },
    {
      "constant": true,
      "inputs": [
        {
          "name": "_id",
          "type": "uint256"
        }
      ],
      "name": "getRequest",
      "outputs": [
        {
          "name": "",
          "type": "address"
        },
        {
          "name": "",
          "type": "uint256"
        }
      ],
      "payable": false,
      "stateMutability": "view",
      "type": "function",
      "signature": "0xc58343ef"
    },
    {
      "constant": true,
      "inputs": [
        {
          "name": "_id",
          "type": "uint256"
        }
      ],
      "name": "getRequestUser",
      "outputs": [
        {
          "name": "",
          "type": "address"
        }
      ],
      "payable": false,
      "stateMutability": "view",
      "type": "function",
      "signature": "0xe8538889"
    },
    {
      "constant": true,
      "inputs": [
        {
          "name": "_id",
          "type": "uint256"
        }
      ],
      "name": "getRequestResource",
      "outputs": [
        {
          "name": "",
          "type": "uint256"
        }
      ],
      "payable": false,
      "stateMutability": "view",
      "type": "function",
      "signature": "0x3284a4ba"
    }
  ],
  "bytecode": "0x608060405234801561001057600080fd5b50336000806101000a81548173ffffffffffffffffffffffffffffffffffffffff021916908373ffffffffffffffffffffffffffffffffffffffff1602179055506000600181905550600060028190555073af212b1d492e73c6bf1f542a703daeb877f42e89600360006101000a81548173ffffffffffffffffffffffffffffffffffffffff021916908373ffffffffffffffffffffffffffffffffffffffff1602179055506100f16000809054906101000a900473ffffffffffffffffffffffffffffffffffffffff1660016100f6640100000000026401000000009004565b6103fc565b6000600460008473ffffffffffffffffffffffffffffffffffffffff1673ffffffffffffffffffffffffffffffffffffffff16815260200190815260200160002060010154905060008114156103f757600160008154809291906001019190505550600154905060c0604051908101604052808473ffffffffffffffffffffffffffffffffffffffff168152602001828152602001831515815260200160008152602001600081526020016000815250600460008573ffffffffffffffffffffffffffffffffffffffff1673ffffffffffffffffffffffffffffffffffffffff16815260200190815260200160002060008201518160000160006101000a81548173ffffffffffffffffffffffffffffffffffffffff021916908373ffffffffffffffffffffffffffffffffffffffff1602179055506020820151816001015560408201518160020160006101000a81548160ff021916908315150217905550606082015181600301556080820151816004015560a0820151816005015590505060c0604051908101604052808473ffffffffffffffffffffffffffffffffffffffff1681526020018281526020018315158152602001600081526020016000815260200160008152506005600083815260200190815260200160002060008201518160000160006101000a81548173ffffffffffffffffffffffffffffffffffffffff021916908373ffffffffffffffffffffffffffffffffffffffff1602179055506020820151816001015560408201518160020160006101000a81548160ff021916908315150217905550606082015181600301556080820151816004015560a082015181600501559050507fc1c4680a69da395b5ddc6f4a49b2f52c0743091886f585cdf7f6dff7b07f31918382846000806000604051808773ffffffffffffffffffffffffffffffffffffffff1673ffffffffffffffffffffffffffffffffffffffff16815260200186815260200185151515158152602001848152602001838152602001828152602001965050505050505060405180910390a15b505050565b6120d08061040b6000396000f3fe608060405260043610610107576000357c0100000000000000000000000000000000000000000000000000000000900463ffffffff16806301b983391461010c57806307973ccf146101475780630a3fa24a1461017257806311d086761461019d578063155fec72146101d85780632212b16e146102535780633284a4ba146102a65780634f8632ba146102f55780636e1346ed1461034c5780638d225030146103b35780638da5cb5b146105125780638dc22cba14610569578063900b6cab1461060b5780639857518814610765578063ab2b3a80146107b6578063c510d96d14610813578063c58343ef1461083e578063e8538889146108c0578063edf538861461093b575b600080fd5b34801561011857600080fd5b506101456004803603602081101561012f57600080fd5b81019080803590602001909291905050506109f3565b005b34801561015357600080fd5b5061015c610b03565b6040518082815260200191505060405180910390f35b34801561017e57600080fd5b50610187610b09565b6040518082815260200191505060405180910390f35b3480156101a957600080fd5b506101d6600480360360208110156101c057600080fd5b8101908080359060200190929190505050610b0f565b005b3480156101e457600080fd5b50610211600480360360208110156101fb57600080fd5b8101908080359060200190929190505050610d5b565b604051808273ffffffffffffffffffffffffffffffffffffffff1673ffffffffffffffffffffffffffffffffffffffff16815260200191505060405180910390f35b34801561025f57600080fd5b5061028c6004803603602081101561027657600080fd5b8101908080359060200190929190505050610f74565b604051808215151515815260200191505060405180910390f35b3480156102b257600080fd5b506102df600480360360208110156102c957600080fd5b810190808035906020019092919050505061110b565b6040518082815260200191505060405180910390f35b34801561030157600080fd5b5061030a6111cf565b604051808273ffffffffffffffffffffffffffffffffffffffff1673ffffffffffffffffffffffffffffffffffffffff16815260200191505060405180910390f35b34801561035857600080fd5b506103b16004803603606081101561036f57600080fd5b81019080803573ffffffffffffffffffffffffffffffffffffffff169060200190929190803590602001909291908035151590602001909291905050506111f5565b005b3480156103bf57600080fd5b50610510600480360360408110156103d657600080fd5b81019080803590602001906401000000008111156103f357600080fd5b82018360208201111561040557600080fd5b8035906020019184600183028401116401000000008311171561042757600080fd5b91908080601f016020809104026020016040519081016040528093929190818152602001838380828437600081840152601f19601f8201169050808301925050505050505091929192908035906020019064010000000081111561048a57600080fd5b82018360208201111561049c57600080fd5b803590602001918460018302840111640100000000831117156104be57600080fd5b91908080601f016020809104026020016040519081016040528093929190818152602001838380828437600081840152601f19601f8201169050808301925050505050505091929192905050506112fc565b005b34801561051e57600080fd5b506105276115f3565b604051808273ffffffffffffffffffffffffffffffffffffffff1673ffffffffffffffffffffffffffffffffffffffff16815260200191505060405180910390f35b34801561057557600080fd5b506105a26004803603602081101561058c57600080fd5b8101908080359060200190929190505050611618565b604051808773ffffffffffffffffffffffffffffffffffffffff1673ffffffffffffffffffffffffffffffffffffffff16815260200186815260200185151515158152602001848152602001838152602001828152602001965050505050505060405180910390f35b34801561061757600080fd5b506106446004803603602081101561062e57600080fd5b8101908080359060200190929190505050611681565b6040518085815260200180602001806020018473ffffffffffffffffffffffffffffffffffffffff1673ffffffffffffffffffffffffffffffffffffffff168152602001838103835286818151815260200191508051906020019080838360005b838110156106c05780820151818401526020810190506106a5565b50505050905090810190601f1680156106ed5780820380516001836020036101000a031916815260200191505b50838103825285818151815260200191508051906020019080838360005b8381101561072657808201518184015260208101905061070b565b50505050905090810190601f1680156107535780820380516001836020036101000a031916815260200191505b50965050505050505060405180910390f35b34801561077157600080fd5b506107b46004803603602081101561078857600080fd5b81019080803573ffffffffffffffffffffffffffffffffffffffff169060200190929190505050611801565b005b3480156107c257600080fd5b50610811600480360360408110156107d957600080fd5b81019080803573ffffffffffffffffffffffffffffffffffffffff1690602001909291908035151590602001909291905050506119e3565b005b34801561081f57600080fd5b50610828611ce9565b6040518082815260200191505060405180910390f35b34801561084a57600080fd5b506108776004803603602081101561086157600080fd5b8101908080359060200190929190505050611d33565b604051808373ffffffffffffffffffffffffffffffffffffffff1673ffffffffffffffffffffffffffffffffffffffff1681526020018281526020019250505060405180910390f35b3480156108cc57600080fd5b506108f9600480360360208110156108e357600080fd5b8101908080359060200190929190505050611e1b565b604051808273ffffffffffffffffffffffffffffffffffffffff1673ffffffffffffffffffffffffffffffffffffffff16815260200191505060405180910390f35b34801561094757600080fd5b5061098a6004803603602081101561095e57600080fd5b81019080803573ffffffffffffffffffffffffffffffffffffffff169060200190929190505050611eff565b604051808773ffffffffffffffffffffffffffffffffffffffff1673ffffffffffffffffffffffffffffffffffffffff16815260200186815260200185151515158152602001848152602001838152602001828152602001965050505050505060405180910390f35b600081141515610b005760026000815480929190600190039190505550600460003373ffffffffffffffffffffffffffffffffffffffff1673ffffffffffffffffffffffffffffffffffffffff168152602001908152602001600020600301600081548092919060019003919050555060066000828152602001908152602001600020600080820160009055600182016000610a8f9190611f68565b600282016000610a9f9190611f68565b6003820160006101000a81549073ffffffffffffffffffffffffffffffffffffffff021916905550507fdd673f98c4d2d29b73520888ecb759f89c4544d4a9e1cc2393d546ebe32fd63c816040518082815260200191505060405180910390a15b50565b60015481565b60025481565b60008114151515610b1f57600080fd5b6000600460006006600085815260200190815260200160002060030160009054906101000a900473ffffffffffffffffffffffffffffffffffffffff1673ffffffffffffffffffffffffffffffffffffffff1673ffffffffffffffffffffffffffffffffffffffff1681526020019081526020016000209050600560008260010154815260200190815260200160002060040160008154809291906001019190505550600460006006600085815260200190815260200160002060030160009054906101000a900473ffffffffffffffffffffffffffffffffffffffff1673ffffffffffffffffffffffffffffffffffffffff1673ffffffffffffffffffffffffffffffffffffffff16815260200190815260200160002060040160008154809291906001019190505550600860008260000160009054906101000a900473ffffffffffffffffffffffffffffffffffffffff1673ffffffffffffffffffffffffffffffffffffffff1673ffffffffffffffffffffffffffffffffffffffff16815260200190815260200160002060408051908101604052803373ffffffffffffffffffffffffffffffffffffffff168152602001848152509080600181540180825580915050906001820390600052602060002090600202016000909192909190915060008201518160000160006101000a81548173ffffffffffffffffffffffffffffffffffffffff021916908373ffffffffffffffffffffffffffffffffffffffff160217905550602082015181600101555050505050565b60006006600083815260200190815260200160002060030160009054906101000a900473ffffffffffffffffffffffffffffffffffffffff1673ffffffffffffffffffffffffffffffffffffffff163373ffffffffffffffffffffffffffffffffffffffff16141515610dcd57600080fd5b6000600460003373ffffffffffffffffffffffffffffffffffffffff1673ffffffffffffffffffffffffffffffffffffffff168152602001908152602001600020600401541415610e215760009050610f6f565b60008090505b600460003373ffffffffffffffffffffffffffffffffffffffff1673ffffffffffffffffffffffffffffffffffffffff16815260200190815260200160002060040154811015610f695782600860003373ffffffffffffffffffffffffffffffffffffffff1673ffffffffffffffffffffffffffffffffffffffff16815260200190815260200160002082815481101515610ebe57fe5b9060005260206000209060020201600101541415610f5c57600860003373ffffffffffffffffffffffffffffffffffffffff1673ffffffffffffffffffffffffffffffffffffffff16815260200190815260200160002081815481101515610f2257fe5b906000526020600020906002020160000160009054906101000a900473ffffffffffffffffffffffffffffffffffffffff16915050610f6f565b8080600101915050610e27565b50600090505b919050565b6000808214151515610f8557600080fd5b610f8d611fb0565b600460003373ffffffffffffffffffffffffffffffffffffffff1673ffffffffffffffffffffffffffffffffffffffff16815260200190815260200160002060c060405190810160405290816000820160009054906101000a900473ffffffffffffffffffffffffffffffffffffffff1673ffffffffffffffffffffffffffffffffffffffff1673ffffffffffffffffffffffffffffffffffffffff168152602001600182015481526020016002820160009054906101000a900460ff161515151581526020016003820154815260200160048201548152602001600582015481525050905060008090505b8160a001518110156110ff578360096000846000015173ffffffffffffffffffffffffffffffffffffffff1673ffffffffffffffffffffffffffffffffffffffff168152602001908152602001600020828154811015156110d657fe5b906000526020600020015414156110f257600192505050611106565b8080600101915050611079565b5060009150505b919050565b6000600460003373ffffffffffffffffffffffffffffffffffffffff1673ffffffffffffffffffffffffffffffffffffffff168152602001908152602001600020600401548210801561115f575060008214155b151561116a57600080fd5b600860003373ffffffffffffffffffffffffffffffffffffffff1673ffffffffffffffffffffffffffffffffffffffff168152602001908152602001600020828154811015156111b657fe5b9060005260206000209060020201600101549050919050565b600360009054906101000a900473ffffffffffffffffffffffffffffffffffffffff1681565b6000821415151561120557600080fd5b80156112f757600960008473ffffffffffffffffffffffffffffffffffffffff1673ffffffffffffffffffffffffffffffffffffffff1681526020019081526020016000208290806001815401808255809150509060018203906000526020600020016000909192909190915055506000600460008573ffffffffffffffffffffffffffffffffffffffff1673ffffffffffffffffffffffffffffffffffffffff16815260200190815260200160002090508060050160008154809291906001019190505550600560008260010154815260200190815260200160002060050160008154809291906001019190505550505b505050565b60026000815480929190600101919050555060006002549050600760003373ffffffffffffffffffffffffffffffffffffffff1673ffffffffffffffffffffffffffffffffffffffff168152602001908152602001600020819080600181540180825580915050906001820390600052602060002001600090919290919091505550600460003373ffffffffffffffffffffffffffffffffffffffff1673ffffffffffffffffffffffffffffffffffffffff168152602001908152602001600020600301600081548092919060010191905055506080604051908101604052808281526020018481526020018381526020013373ffffffffffffffffffffffffffffffffffffffff1681525060066000838152602001908152602001600020600082015181600001556020820151816001019080519060200190611441929190611fff565b50604082015181600201908051906020019061145e929190611fff565b5060608201518160030160006101000a81548173ffffffffffffffffffffffffffffffffffffffff021916908373ffffffffffffffffffffffffffffffffffffffff1602179055509050507f03a31eda3264898c9097bb2d2f45e34d3ff307b9e040196195632ba7a7bf4e38818484336040518085815260200180602001806020018473ffffffffffffffffffffffffffffffffffffffff1673ffffffffffffffffffffffffffffffffffffffff168152602001838103835286818151815260200191508051906020019080838360005b8381101561154a57808201518184015260208101905061152f565b50505050905090810190601f1680156115775780820380516001836020036101000a031916815260200191505b50838103825285818151815260200191508051906020019080838360005b838110156115b0578082015181840152602081019050611595565b50505050905090810190601f1680156115dd5780820380516001836020036101000a031916815260200191505b50965050505050505060405180910390a1505050565b6000809054906101000a900473ffffffffffffffffffffffffffffffffffffffff1681565b60056020528060005260406000206000915090508060000160009054906101000a900473ffffffffffffffffffffffffffffffffffffffff16908060010154908060020160009054906101000a900460ff16908060030154908060040154908060050154905086565b6006602052806000526040600020600091509050806000015490806001018054600181600116156101000203166002900480601f0160208091040260200160405190810160405280929190818152602001828054600181600116156101000203166002900480156117335780601f1061170857610100808354040283529160200191611733565b820191906000526020600020905b81548152906001019060200180831161171657829003601f168201915b505050505090806002018054600181600116156101000203166002900480601f0160208091040260200160405190810160405280929190818152602001828054600181600116156101000203166002900480156117d15780601f106117a6576101008083540402835291602001916117d1565b820191906000526020600020905b8154815290600101906020018083116117b457829003601f168201915b5050505050908060030160009054906101000a900473ffffffffffffffffffffffffffffffffffffffff16905084565b6000600460008373ffffffffffffffffffffffffffffffffffffffff1673ffffffffffffffffffffffffffffffffffffffff1681526020019081526020016000206001015490506000811415156119df5760016000815480929190600190039190505550600460008373ffffffffffffffffffffffffffffffffffffffff1673ffffffffffffffffffffffffffffffffffffffff168152602001908152602001600020600080820160006101000a81549073ffffffffffffffffffffffffffffffffffffffff021916905560018201600090556002820160006101000a81549060ff0219169055600382016000905560048201600090556005820160009055505060056000828152602001908152602001600020600080820160006101000a81549073ffffffffffffffffffffffffffffffffffffffff021916905560018201600090556002820160006101000a81549060ff021916905560038201600090556004820160009055600582016000905550507ff4875fe9528f80a85b09c0ddc2e3fb332b4670d0190065c1495a1ba58af8206c8282604051808373ffffffffffffffffffffffffffffffffffffffff1673ffffffffffffffffffffffffffffffffffffffff1681526020018281526020019250505060405180910390a15b5050565b6000600460008473ffffffffffffffffffffffffffffffffffffffff1673ffffffffffffffffffffffffffffffffffffffff1681526020019081526020016000206001015490506000811415611ce457600160008154809291906001019190505550600154905060c0604051908101604052808473ffffffffffffffffffffffffffffffffffffffff168152602001828152602001831515815260200160008152602001600081526020016000815250600460008573ffffffffffffffffffffffffffffffffffffffff1673ffffffffffffffffffffffffffffffffffffffff16815260200190815260200160002060008201518160000160006101000a81548173ffffffffffffffffffffffffffffffffffffffff021916908373ffffffffffffffffffffffffffffffffffffffff1602179055506020820151816001015560408201518160020160006101000a81548160ff021916908315150217905550606082015181600301556080820151816004015560a0820151816005015590505060c0604051908101604052808473ffffffffffffffffffffffffffffffffffffffff1681526020018281526020018315158152602001600081526020016000815260200160008152506005600083815260200190815260200160002060008201518160000160006101000a81548173ffffffffffffffffffffffffffffffffffffffff021916908373ffffffffffffffffffffffffffffffffffffffff1602179055506020820151816001015560408201518160020160006101000a81548160ff021916908315150217905550606082015181600301556080820151816004015560a082015181600501559050507fc1c4680a69da395b5ddc6f4a49b2f52c0743091886f585cdf7f6dff7b07f31918382846000806000604051808773ffffffffffffffffffffffffffffffffffffffff1673ffffffffffffffffffffffffffffffffffffffff16815260200186815260200185151515158152602001848152602001838152602001828152602001965050505050505060405180910390a15b505050565b6000600460003373ffffffffffffffffffffffffffffffffffffffff1673ffffffffffffffffffffffffffffffffffffffff16815260200190815260200160002060040154905090565b600080600860003373ffffffffffffffffffffffffffffffffffffffff1673ffffffffffffffffffffffffffffffffffffffff16815260200190815260200160002083815481101515611d8257fe5b906000526020600020906002020160000160009054906101000a900473ffffffffffffffffffffffffffffffffffffffff16600860003373ffffffffffffffffffffffffffffffffffffffff1673ffffffffffffffffffffffffffffffffffffffff16815260200190815260200160002084815481101515611e0057fe5b90600052602060002090600202016001015491509150915091565b6000600460003373ffffffffffffffffffffffffffffffffffffffff1673ffffffffffffffffffffffffffffffffffffffff1681526020019081526020016000206004015482108015611e6f575060008214155b1515611e7a57600080fd5b600860003373ffffffffffffffffffffffffffffffffffffffff1673ffffffffffffffffffffffffffffffffffffffff16815260200190815260200160002082815481101515611ec657fe5b906000526020600020906002020160000160009054906101000a900473ffffffffffffffffffffffffffffffffffffffff169050919050565b60046020528060005260406000206000915090508060000160009054906101000a900473ffffffffffffffffffffffffffffffffffffffff16908060010154908060020160009054906101000a900460ff16908060030154908060040154908060050154905086565b50805460018160011615610100020316600290046000825580601f10611f8e5750611fad565b601f016020900490600052602060002090810190611fac919061207f565b5b50565b60c060405190810160405280600073ffffffffffffffffffffffffffffffffffffffff168152602001600081526020016000151581526020016000815260200160008152602001600081525090565b828054600181600116156101000203166002900490600052602060002090601f016020900481019282601f1061204057805160ff191683800117855561206e565b8280016001018555821561206e579182015b8281111561206d578251825591602001919060010190612052565b5b50905061207b919061207f565b5090565b6120a191905b8082111561209d576000816000905550600101612085565b5090565b9056fea165627a7a723058201605b68c55b1d6980fe9b8e5064dab3a4c936d3c294ed471b66f10beac49fb9b0029",
  "source": "pragma solidity ^0.5.0;\n\ncontract ControlAcceso {\n    address public owner;\n    uint public userCount;\n    uint public resourceCount;\n    address public user;\n    mapping (address => User) public addressToUser;\n    mapping (uint => User) public idToUser;\n    mapping (uint => Resource) public idToResource;\n    mapping (address => uint[]) userResources;\n    mapping (address => Request[]) userRequest;\n    mapping (address => uint[]) allowedResources;\n\n    struct Resource {\n        uint id;\n        string name;\n        string organization;\n        address userAdmin;\n    }\n\n    struct User {\n        address user;\n        uint id;\n        bool admin;\n        uint adminResources;\n        uint countRequests;\n        uint allowedResources;\n    }\n\n    struct Request {\n        address user;\n        uint resource;\n    }\n\n    event CreateResource(\n        uint id,\n        string name,\n        string organization,\n        address userAdmin\n    );\n\n    event RemoveResource(\n        uint id\n    );\n\n    event CreateUser(\n        address user,\n        uint id,\n        bool admin,\n        uint adminResources,\n        uint countRequests,\n        uint allowedResources\n    );\n\n    event RemoveUser(\n        address user,\n        uint id\n    );\n\n    modifier onlyOwner {\n        require(msg.sender == owner, \"Only owner can call this function\");\n        _;\n    }\n\n    modifier onlyAdmin {\n        require(addressToUser[msg.sender].id != 0 && addressToUser[msg.sender].admin == true, \"Only admins can call this function\");\n        _;\n    }\n\n    //mapping(uint => address) public users;\n    constructor() public {\n        owner = msg.sender;\n        userCount = 0;\n        resourceCount = 0;\n        // userCount ++;\n        user = 0xAf212b1d492E73c6bF1F542A703dAEB877f42e89;\n        addUser(owner, true);\n    }\n\n    function addUser(address _userAddress, bool _admin) public {\n        uint id = addressToUser[_userAddress].id;\n        if (id == 0) {\n            userCount++;\n            id = userCount; \n            addressToUser[_userAddress] = User(_userAddress, id, _admin, 0, 0, 0);\n            idToUser[id] = User(_userAddress, id, _admin, 0, 0, 0);\n            emit CreateUser(_userAddress, id, _admin, 0, 0, 0);\n        }\n        // users[id] = _userAddress; // Por esto falla el migrate\n    }\n\n    function removeUser(address _userAddress) public {\n        uint id = addressToUser[_userAddress].id;\n        if (id != 0) {\n            userCount--;\n            delete addressToUser[_userAddress];\n            delete idToUser[id];\n            emit RemoveUser(_userAddress, id);\n        }\n        // users[id] = _userAddress; // Por esto falla el migrate\n    }\n\n    function addResource(string memory _name, string memory _organization) public {\n        resourceCount++;\n        uint _id = resourceCount;\n        userResources[msg.sender].push(_id);\n        addressToUser[msg.sender].adminResources++;\n        idToResource[_id] = Resource(_id, _name, _organization, msg.sender);\n        emit CreateResource(_id, _name, _organization, msg.sender);       \n    }\n\n    function removeResource(uint _id) public {\n        if (_id!=0) {\n            resourceCount--;\n            addressToUser[msg.sender].adminResources--;\n            delete idToResource[_id];\n            emit RemoveResource(_id);\n        }      \n    }\n\n    function requestResource(uint _id) public {\n        require(_id != 0);\n        User storage admin = addressToUser[idToResource[_id].userAdmin];\n        idToUser[admin.id].countRequests++;\n        addressToUser[idToResource[_id].userAdmin].countRequests++;\n        userRequest[admin.user].push(Request(msg.sender,_id));\n    }\n\n    function isRequested(uint _id) public view returns (address) {\n        require(msg.sender == idToResource[_id].userAdmin);\n        if(addressToUser[msg.sender].countRequests == 0) {\n            return 0x0000000000000000000000000000000000000000;\n        }\n        else {\n            // Resource memory resource = idToResource[_id];\n            for(uint i = 0; i<addressToUser[msg.sender].countRequests; i++) {\n                if(userRequest[msg.sender][i].resource == _id) {\n                    return userRequest[msg.sender][i].user;\n                }\n            }\n        }\n        return 0x0000000000000000000000000000000000000000;\n    }\n\n    function acceptRequest(address _user, uint _id, bool _accept) public {\n        require(_id != 0);\n        if(_accept) {\n            allowedResources[_user].push(_id);\n            User storage userAllowed = addressToUser[_user];\n            userAllowed.allowedResources++;\n            idToUser[userAllowed.id].allowedResources++;\n        }\n    }\n\n    function haveAccess(uint _id) public view returns (bool) {\n        require(_id != 0);\n        User memory _user = addressToUser[msg.sender];\n        for(uint i=0; i<_user.allowedResources; i++) {\n            if(allowedResources[_user.user][i] == _id) {\n                return true;\n            }\n        }\n        return false;\n    }\n\n    function getCountRequest() public view returns (uint) {\n        return addressToUser[msg.sender].countRequests;\n    }\n\n    function getRequest(uint _id) public view returns (address, uint) {\n        //require(_id < addressToUser[msg.sender].countRequests && _id!=0);\n        return (userRequest[msg.sender][_id].user, userRequest[msg.sender][_id].resource);\n    }\n\n    function getRequestUser(uint _id) public view returns (address)  {\n        require(_id < addressToUser[msg.sender].countRequests && _id!=0);\n        return userRequest[msg.sender][_id].user;\n\n    }\n\n    function getRequestResource(uint _id) public view returns (uint)  {\n        require(_id < addressToUser[msg.sender].countRequests && _id!=0);\n\n        return userRequest[msg.sender][_id].resource;\n    }\n}\n",
  "sourcePath": "/home/yisus/Documentos/IngenieriaInformatica/Cuarto/Segundo Cuatrimestre/Control-Acceso-Blockchain/contracts/ControlAcceso.sol",
  "compiler": {
    "name": "solc",
    "version": "0.5.0+commit.1d4f565a.Emscripten.clang"
  },
  "schemaVersion": "3.0.6",
  "updatedAt": "2019-04-09T09:04:49.118Z",
  "devdoc": {
    "methods": {}
  },
  "userdoc": {
    "methods": {}
  }
}